{"contracts/HogwartsStudentsService.sol":{"HogwartsStudentsService":{"abi":[{"inputs":[],"stateMutability":"payable","type":"constructor"},{"anonymous":false,"inputs":[{"indexed":true,"internalType":"address","name":"owner","type":"address"},{"indexed":true,"internalType":"address","name":"approved","type":"address"},{"indexed":true,"internalType":"uint256","name":"tokenId","type":"uint256"}],"name":"Approval","type":"event"},{"anonymous":false,"inputs":[{"indexed":true,"internalType":"address","name":"owner","type":"address"},{"indexed":true,"internalType":"address","name":"operator","type":"address"},{"indexed":false,"internalType":"bool","name":"approved","type":"bool"}],"name":"ApprovalForAll","type":"event"},{"anonymous":false,"inputs":[{"indexed":true,"internalType":"address","name":"from","type":"address"},{"indexed":true,"internalType":"address","name":"to","type":"address"},{"indexed":true,"internalType":"uint256","name":"tokenId","type":"uint256"}],"name":"Transfer","type":"event"},{"anonymous":false,"inputs":[{"indexed":true,"internalType":"address","name":"newcomer","type":"address"},{"indexed":false,"internalType":"string","name":"name","type":"string"},{"indexed":false,"internalType":"string","name":"faculty","type":"string"}],"name":"WelcomeToHogwarts","type":"event"},{"inputs":[{"internalType":"address","name":"","type":"address"}],"name":"addressesToDomains","outputs":[{"internalType":"string","name":"","type":"string"}],"stateMutability":"view","type":"function"},{"inputs":[{"internalType":"string","name":"name","type":"string"},{"internalType":"string","name":"patronus","type":"string"},{"internalType":"uint256","name":"nonce","type":"uint256"}],"name":"applyToHogwarts","outputs":[],"stateMutability":"payable","type":"function"},{"inputs":[{"internalType":"address","name":"to","type":"address"},{"internalType":"uint256","name":"tokenId","type":"uint256"}],"name":"approve","outputs":[],"stateMutability":"nonpayable","type":"function"},{"inputs":[{"internalType":"address","name":"owner","type":"address"}],"name":"balanceOf","outputs":[{"internalType":"uint256","name":"","type":"uint256"}],"stateMutability":"view","type":"function"},{"inputs":[{"internalType":"address","name":"","type":"address"}],"name":"domainTracker","outputs":[{"internalType":"bool","name":"","type":"bool"}],"stateMutability":"view","type":"function"},{"inputs":[{"internalType":"string","name":"","type":"string"}],"name":"domains","outputs":[{"internalType":"address","name":"","type":"address"}],"stateMutability":"view","type":"function"},{"inputs":[{"internalType":"string","name":"name","type":"string"}],"name":"getAddress","outputs":[{"internalType":"address","name":"","type":"address"}],"stateMutability":"view","type":"function"},{"inputs":[],"name":"getAllNames","outputs":[{"internalType":"string[]","name":"","type":"string[]"}],"stateMutability":"view","type":"function"},{"inputs":[{"internalType":"uint256","name":"tokenId","type":"uint256"}],"name":"getApproved","outputs":[{"internalType":"address","name":"","type":"address"}],"stateMutability":"view","type":"function"},{"inputs":[{"internalType":"string","name":"name","type":"string"}],"name":"getRecord","outputs":[{"components":[{"internalType":"string","name":"domain","type":"string"},{"internalType":"uint256","name":"applicationDate","type":"uint256"},{"internalType":"string","name":"faculty","type":"string"},{"internalType":"string","name":"patronus","type":"string"},{"internalType":"address","name":"applicant","type":"address"}],"internalType":"struct HogwartsStudentsService.HogwartsStudent","name":"","type":"tuple"}],"stateMutability":"view","type":"function"},{"inputs":[],"name":"getRecordBySender","outputs":[{"components":[{"internalType":"string","name":"domain","type":"string"},{"internalType":"uint256","name":"applicationDate","type":"uint256"},{"internalType":"string","name":"faculty","type":"string"},{"internalType":"string","name":"patronus","type":"string"},{"internalType":"address","name":"applicant","type":"address"}],"internalType":"struct HogwartsStudentsService.HogwartsStudent","name":"","type":"tuple"}],"stateMutability":"view","type":"function"},{"inputs":[],"name":"gryffindorColor","outputs":[{"internalType":"string","name":"","type":"string"}],"stateMutability":"view","type":"function"},{"inputs":[],"name":"gryffindorSld","outputs":[{"internalType":"string","name":"","type":"string"}],"stateMutability":"view","type":"function"},{"inputs":[],"name":"hufflepuffColor","outputs":[{"internalType":"string","name":"","type":"string"}],"stateMutability":"view","type":"function"},{"inputs":[],"name":"hufflepuffSld","outputs":[{"internalType":"string","name":"","type":"string"}],"stateMutability":"view","type":"function"},{"inputs":[{"internalType":"address","name":"owner","type":"address"},{"internalType":"address","name":"operator","type":"address"}],"name":"isApprovedForAll","outputs":[{"internalType":"bool","name":"","type":"bool"}],"stateMutability":"view","type":"function"},{"inputs":[],"name":"isOwner","outputs":[{"internalType":"bool","name":"","type":"bool"}],"stateMutability":"view","type":"function"},{"inputs":[],"name":"name","outputs":[{"internalType":"string","name":"","type":"string"}],"stateMutability":"view","type":"function"},{"inputs":[{"internalType":"uint256","name":"","type":"uint256"}],"name":"names","outputs":[{"internalType":"string","name":"","type":"string"}],"stateMutability":"view","type":"function"},{"inputs":[{"internalType":"uint256","name":"tokenId","type":"uint256"}],"name":"ownerOf","outputs":[{"internalType":"address","name":"","type":"address"}],"stateMutability":"view","type":"function"},{"inputs":[],"name":"ravenclawColor","outputs":[{"internalType":"string","name":"","type":"string"}],"stateMutability":"view","type":"function"},{"inputs":[],"name":"ravenclawSld","outputs":[{"internalType":"string","name":"","type":"string"}],"stateMutability":"view","type":"function"},{"inputs":[{"internalType":"string","name":"","type":"string"}],"name":"records","outputs":[{"internalType":"string","name":"domain","type":"string"},{"internalType":"uint256","name":"applicationDate","type":"uint256"},{"internalType":"string","name":"faculty","type":"string"},{"internalType":"string","name":"patronus","type":"string"},{"internalType":"address","name":"applicant","type":"address"}],"stateMutability":"view","type":"function"},{"inputs":[{"internalType":"address","name":"from","type":"address"},{"internalType":"address","name":"to","type":"address"},{"internalType":"uint256","name":"tokenId","type":"uint256"}],"name":"safeTransferFrom","outputs":[],"stateMutability":"nonpayable","type":"function"},{"inputs":[{"internalType":"address","name":"from","type":"address"},{"internalType":"address","name":"to","type":"address"},{"internalType":"uint256","name":"tokenId","type":"uint256"},{"internalType":"bytes","name":"data","type":"bytes"}],"name":"safeTransferFrom","outputs":[],"stateMutability":"nonpayable","type":"function"},{"inputs":[{"internalType":"address","name":"operator","type":"address"},{"internalType":"bool","name":"approved","type":"bool"}],"name":"setApprovalForAll","outputs":[],"stateMutability":"nonpayable","type":"function"},{"inputs":[],"name":"slytherinColor","outputs":[{"internalType":"string","name":"","type":"string"}],"stateMutability":"view","type":"function"},{"inputs":[],"name":"slytherinSld","outputs":[{"internalType":"string","name":"","type":"string"}],"stateMutability":"view","type":"function"},{"inputs":[{"internalType":"bytes4","name":"interfaceId","type":"bytes4"}],"name":"supportsInterface","outputs":[{"internalType":"bool","name":"","type":"bool"}],"stateMutability":"view","type":"function"},{"inputs":[],"name":"symbol","outputs":[{"internalType":"string","name":"","type":"string"}],"stateMutability":"view","type":"function"},{"inputs":[],"name":"tld","outputs":[{"internalType":"string","name":"","type":"string"}],"stateMutability":"view","type":"function"},{"inputs":[{"internalType":"uint256","name":"tokenId","type":"uint256"}],"name":"tokenURI","outputs":[{"internalType":"string","name":"","type":"string"}],"stateMutability":"view","type":"function"},{"inputs":[{"internalType":"address","name":"from","type":"address"},{"internalType":"address","name":"to","type":"address"},{"internalType":"uint256","name":"tokenId","type":"uint256"}],"name":"transferFrom","outputs":[],"stateMutability":"nonpayable","type":"function"},{"inputs":[{"internalType":"string","name":"name","type":"string"}],"name":"valid","outputs":[{"internalType":"bool","name":"","type":"bool"}],"stateMutability":"pure","type":"function"},{"inputs":[],"name":"withdraw","outputs":[],"stateMutability":"nonpayable","type":"function"}],"evm":{"bytecode":{"linkReferences":{},"object":"601960808181527f486f6777617274732053747564656e747320536572766963650000000000000060a0526101006040908152600360c08181526248535360e81b60e05291939260209290916001600160401b036000958062000063885462001648565b95601f9687811162001618575b508790878311600114620015b1578992620015a5575b50508160011b9160001990851b1c19161786555b82519081116200159157600192620000b3845462001648565b85811162001556575b508590858311600114620014e057600080516020620042b4833981519152939291889183620014d4575b505060001982841b1c191690841b1783555b6200010560085462001648565b848111620014b0575b5061017d600855600886527f696474683d2232373022206865696768743d22323730222066696c6c3d22000060058688207f3c73766720786d6c6e733d22687474703a2f2f7777772e77332e6f72672f323081557f30302f737667222077696474683d2232373022206865696768743d2232373022868201557f2066696c6c3d226e6f6e65223e3c6720636c69702d706174683d2275726c282360028201557f636c6970305f325f3429223e3c726563742077696474683d2232373022206865848201557f696768743d22323730222066696c6c3d227768697465222f3e3c726563742077600482015501556200020760095462001648565b8481116200148c575b50611e61600955600986527f353722206865696768743d223436222066696c6c3d2275726c28237061747465858720937f222f3e3c7265637420783d223131332220793d22313237222077696474683d2285558401557f726e3029222f3e3c7265637420783d2239392220793d2239372220776964746860028401558201557f7465726e3129222f3e3c2f673e3c646566733e3c7061747465726e2069643d2260048201557f7061747465726e3022207061747465726e436f6e74656e74556e6974733d226f60058201557f626a656374426f756e64696e67426f78222077696474683d223122206865696760068201557f68743d2231223e3c75736520687265663d2223696d616765305f325f3422207460078201557f72616e73666f726d3d227472616e736c61746528302e3039363439313229207360088201557f63616c6528302e303038343036343320302e3031303431363729222f3e3c2f7060098201557f61747465726e3e3c7061747465726e2069643d227061747465726e3122207061600a8201557f747465726e436f6e74656e74556e6974733d226f626a656374426f756e64696e600b8201557f67426f78222077696474683d223122206865696768743d2231223e3c75736520600c8201557f687265663d2223696d616765315f325f3422207472616e73666f726d3d227472600d8201557f616e736c61746528302e3035353535353629207363616c6528302e3030393235600e8201557f39323620302e3031303431363729222f3e3c2f7061747465726e3e3c636c6970600f8201557f506174682069643d22636c6970305f325f34223e3c726563742077696474683d60108201557f2232373022206865696768743d22323730222066696c6c3d227768697465222f60118201557f3e3c2f636c6970506174683e3c696d6167652069643d22696d616765305f325f60128201557f34222077696474683d22393622206865696768743d2239362220687265663d2260138201557f646174613a696d6167652f706e673b6261736536342c6956424f5277304b476760148201557f6f414141414e5355684555674141414741414141426743415941414144696d4860158201557f633441414141426d4a4c523051412f77442f41502b677661655441414144714560168201557f6c45515652346e4f32644f576756555252417a3854454451565255515242493160178201557f6a45526b456842446455304d4a57454a743042745465306c305443777333424760188201557f3073465255734241556c6c59697068494346416130535538576654534a69484960198201557f75586a7a484f2f374f2b643265354232373159656265637964764a752b395078601a8201557f3855463351417a34467859415a34425777587a61684364414931774638515532601b8201557f6754724e4f4a75656f5879712f4853376e55796b2b596642387a48436b576943601c8201557f4c664237354c4a56686d6f737233675764434f5a61574f504a727742615a4e4d601d8201557f764a54754162306553505935716c5a49544b4630546c43364c79425648356771601e8201557f68385156532b49437066454a5576694d6f58524f554c6f76494655666d437148828201557f784274684b3868717679486645516c532f4b454370666c416c55766968684464838201557f676a6c316f316d4b4a3541315a6b65624b574c413957457279517a2f3073543660218201557f594e2b4a38774a3739646e71794b36462b414d453462304a726c775170414b3760228201557f437977576531694d6649744146565952746d542f34766f76325832797a61484f60238201557f6465654f4a73463477536939796d58327a697a4770476a62423768444b48446660248201557f6b362f6b636b3632476e48684d75697967717475543777464f48645251536d2f60258201557f4c484d4973315367506979502b4a75542f556f396b4533446a77474e6a6f727060268201557f54696f577534677168385156532b51355944657a455332346733357176386c5060278201557f5141302f77564f6b4c343071484b7a34674c4a48393056506b7055666d43564560288201557f4b2b79356d397063412b34436a6d36575539734748757336397a38525a34417860298201557f77417a6955387a775277424268496b32795a57417630417050596d53496f354a602a8201557f5876676862674c4f4837624c4b4d456171337a4272494f7377536f4376783832602b8201557f4f58672f70797a57466746426e3550724462666f6e355a416c7741374e785355602c8201557f722b4a4c444d6471463570415034674a7a346570793058576765366562666151602d8201557f4b704f472b37304c7978436e69457650684b796a384944434d76766e4c794677602e8201557f505867566e6b786676415262766c356f74323442337930756648667173564f79602f8201557f4471377568755942446f7370684c4567354a4a32436231634154354b2f30527460308201557f467672335235756f417679457475466b505771686645777a785a354f5647327960318201557f796d4c446b513552547959715047744355486f6e7843586d7a552b477a4a675460328201557f4f436e6f4c616e5765526e464870424e49533149416933646a65537965516c7160338201557f414739446e50496a6d7670524f777852586b782f6577474b506b632f2b586b5a60348201557f66634c436f784433514e656446424d59315a643634456552794f7a6c69744f4960358201557f663049532b3948763155394b75695635475858774d32325334307a306a66453460368201557f37624c7a482f534458686e6f7669696b49766275562f7848784452706d48717960378201557f624d6f443936325241585430656e6e56565451447a674a76626b763643696a3560388201557f7878734e57455957434e777a6f4b6a516663496a763573356a4e58306f4d736d60398201557f7a434a6365356c775950754530362b51506f65396c53345146335343612f426d603a8201557f78326e334c35534e714545784c4a6c685550754574302b66646c30697733555a603b8201557f7377524d5a764a56662b457461454838414f7365777151677677674f41473941603c8201557f6a6d56536b387a464c69494f5a31417633414d64474d46455652464557515036603d8201557f777566744f6569446e744141414141456c46546b5375516d4343222f3e3c696d603e8201557f6167652069643d22696d616765315f325f34222077696474683d223936222068603f8201557f65696768743d2239362220687265663d22646174613a696d6167652f706e673b858201557f6261736536342c6956424f5277304b47676f414141414e53556845556741414160418201557f4741414141426743415941414144696d48633441414141426d4a4c523051412f60428201557f77442f41502b67766165544141414556306c45515652346e4f3264535973565360438201557f5243415032326e7355456432745a78785630504b71346736726a67306e72314960448201557f6a4e6531482f67306173694b4d35683844427a6d463867714f4464425556515060458201557f41796f7543414b436f4a4c69394274747a497933646f653468574939764b364b60468201557f6a4d6a71696f2b4342343072374d694d696f694d794f7a366f486a4f49376a4f60478201557f49376a4f45353439674e766763464138674634414a7742566961306f39524d4260488201557f3834527a676d5a6641622b426c72546d564a75516b64444a6c64784a7a524e7260498201557f476a344b365552565342304e4177414b354a6155414861675838493534512f30604a8201557f36706648554a46772f3355696c654a454e48516d317a72436c49304368616c56604b8201557f7a6b2f34375556694d427562515847516855647345746267624a544e4157396f604c8201557f356f33566a4b4f5574774a36354e726e5a4d57625157473443627769574b352f604d8201557f466d6a4861634152534c686b6f4b2b6c535376452f34443268543072527a7a79604e8201557f423846705a694f577038742f467267663073784861327941306f524164613551604f8201557f2f345539426d596c6c376c366a415a7166455857512f7354363731474c47636760508201557f6a5a52664a316966687977374941692b54396a62344132617373566970636b7a60518201557f4a656e72555a41433741685546756d5a304e57486241614759524459486f637360528201557f4f714145506b2f5978643237545372574567486441427241375958464b734f3260538201557f4279345064506a6744574b464f43385042324141345233674e6e79744d55554660548201557f444c2f5a30794d314735684c447067533652325455394872544346346757343460558201557f655466684861556c6a33453658797a35576c724b53686d6e68345037496a596660568201557f6937713541447763574245577044547a62465330434477504a6b314a5751646360578201557f54732f4531506c615573704b4e55383356525a6f6f344f38484667474636514a60588201557f67583536656b686d452b617a732f457a4f6c704b336443366a714e6d5848414860598201557f654141634a65304b636873655671446d4157346b635245464668495152765265605a8201557f564c487848545567674f304e6b6f366c6135726a6c416e344d59714a73725432605b8201557f68455138675463574446526e745a32774272436e59444c672f6f346f4f304137605c8201557f59317939645054645866414170544c30396f4f434830434c672b713677464e42605d8201557f3877483569706550364f324474424f50786b375565794843516d764e524e3530605e8201557f65704b354f5636366a4f51426833416265416538504162655a586934754d6974605f8201557f54734232655064444778463776595a6b61345669396649437a3975417265515260608201557f32623756545561685137674948414236454e6e64527454656f487a445276565660618201557f39415a72634476794a74724e537161576a4b416c46422b512b6d4e76644f415560628201557f30425845387057586271416b306747694534726341546f546d52636d6151504f60638201557f4562456a5a366c794f784132314472386868596e724f506836555465472f417560648201557f4c4a4944774558654d756f3571776d7476514353334c3039772f45654e56385860658201557f655473614a33627a454b73422f6935696538355039494e54423370433833555160668201557f5034506f3073744758586c334977444c676451704b3445655435354b5434447960678201557f694d39774f49632f54306b6e636a5052326b625652627049304b31647a58773160688201557f4942783175554a7343706e4834394b473341432b476a41554776794554694f5060698201557f4a55666e562b41502f43613047436a443034332b69513562634268344472314b606a8201557f3064664177355273506757636b64734a7241504762433359576a544968447667606b8201557f42764974507769556f5975544b77747958484976752f32686d796a6646755362606c8201557f35414f763446452b43506b3767394b4c41634d5254747943476f465571374e50606d8201557f68636d31754e377570484f66666a4e35374f475245665438497a4a7742786b45606e8201557f4a754e524d6f4d5946626a622b3349527442454a4e2f2b424578435676465a6a606f8201557f656f393841565a712f516a5438423851736f6f33636950784c3147306b59586360708201557f754c684c6641536d624d376a754d346a754d346a754d6b347975514732742b3560718201557f696d54536741414141424a52553545726b4a6767673d3d222f3e3c2f6465667360728201557f3e3c7465787420783d223530252220793d223830252220646f6d696e616e742d60738201557f626173656c696e653d226d6964646c652220746578742d616e63686f723d226d60748201557f6964646c652220666f6e742d73697a653d223135222066696c6c3d22626c616360758201557f6b2220666f6e742d66616d696c793d22506c7573204a616b617274612053616e60768201557f732c44656a6156752053616e732c4e6f746f20436f6c6f7220456d6f6a692c4160778201557f70706c6520436f6c6f7220456d6f6a692c73616e732d73657269662220666f6e607882015560796f3a16bbb2b4b3b43a1e913137b632111f60811b91015562001410600a5462001648565b918183116200146a575b7f3c2f746578743e3c2f7376673e0000000000000000000000000000000000001a600a5566038d7ea4c68000600b55600c80546001600160a01b031916331790558451612c1590816200169f8239f35b83600a62001482955220910160051c81019062001685565b388080806200141a565b60098752858720620014a991860160051c810190607a0162001685565b3862000210565b60088752858720620014cd91860160051c81019060060162001685565b386200010e565b015190503880620000e6565b92918491601f19821690838a52888a20918a5b8a8282106200153f5750509583600080516020620042b4833981519152971062001526575b505050811b018355620000f8565b015160001983861b60f8161c1916905538808062001518565b8389015185558996909401939283019201620014f3565b62001580908589528789208780860160051c8201928a871062001587575b0160051c019062001685565b38620000bc565b9250819262001574565b634e487b7160e01b86526041600452602486fd5b01519050388062000086565b898052888a209250601f1984168a5b8a82821062001601575050908460019594939210620015e8575b505050811b0186556200009a565b015160001983871b60f8161c19169055388080620015da565b6001859682939686015181550195019301620015c0565b62001641908a8052898b208980860160051c8201928c871062001587570160051c019062001685565b3862000070565b90600182811c921680156200167a575b60208310146200166457565b634e487b7160e01b600052602260045260246000fd5b91607f169162001658565b81811062001691575050565b600081556001016200168556fe60806040526004361015610013575b600080fd5b60003560e01c806301ffc9a7146102cf57806306fdde03146102c6578063081812fc146102bd57806308b13a1d146102b4578063095ea7b3146102ab5780630b912301146102a257806311dd88451461029957806323b872dd1461029057806326449235146102875780632d5514321461027e5780633ccfd60b1461027557806342842e0e1461026c5780634622ab0314610263578063541e771d1461025a5780636352211e146102515780636532b17f1461024857806368bd026c1461023f57806370a082311461023657806373eea2111461022d5780637618af7214610224578063791372751461021b5780637ddd5dd8146102125780638f32d59b1461020957806395d89b41146102005780639791c097146101f7578063a22cb465146101ee578063abe50fa6146101e5578063b5140057146101dc578063b88d4fde146101d3578063bf40fac1146101ca578063c87b56dd146101c1578063d3cbcfea146101b8578063e985e9c5146101af578063fa626f6b146101a65763fb825e5f1461019e57600080fd5b61000e6116cb565b5061000e61164c565b5061000e6115c8565b5061000e6115ab565b5061000e611515565b5061000e6114e8565b5061000e611488565b5061000e61146b565b5061000e611408565b5061000e61131f565b5061000e6112fb565b5061000e611275565b5061000e61124c565b5061000e61122f565b5061000e6111ed565b5061000e61118f565b5061000e611172565b5061000e6110ab565b5061000e610d22565b5061000e610cd9565b5061000e610cba565b5061000e610c09565b5061000e610bdc565b5061000e610ad5565b5061000e610a57565b5061000e610a3a565b5061000e6109d1565b5061000e6108d2565b5061000e610809565b5061000e610725565b5061000e61062b565b5061000e6105ce565b5061000e610477565b5061000e6103b5565b5061000e6102ea565b6001600160e01b031981160361000e57565b503461000e57602036600319011261000e57602060043561030a816102d8565b63ffffffff60e01b166380ac58cd60e01b8114908115610348575b8115610337575b506040519015158152f35b6301ffc9a760e01b1490503861032c565b635b5e139f60e01b81149150610325565b60005b83811061036c5750506000910152565b818101518382015260200161035c565b9060209161039581518092818552858086019101610359565b601f01601f1916010190565b9060206103b292818152019061037c565b90565b503461000e57600080600319360112610474576040518180546103d781610afe565b8084529060019081811690811561044c5750600114610411575b61040d846104018188038261051d565b604051918291826103a1565b0390f35b93508180526020938483205b828410610439575050508161040d9361040192820101936103f1565b805485850187015292850192810161041d565b61040d96506104019450602092508593915060ff191682840152151560051b820101936103f1565b80fd5b503461000e57602036600319011261000e576020610496600435611858565b6040516001600160a01b039091168152f35b50634e487b7160e01b600052604160045260246000fd5b60a081019081106001600160401b038211176104da57604052565b6104e26104a8565b604052565b604081019081106001600160401b038211176104da57604052565b602081019081106001600160401b038211176104da57604052565b90601f801991011681019081106001600160401b038211176104da57604052565b6040519061054b826104bf565b565b6020906001600160401b03811161056a575b601f01601f19160190565b6105726104a8565b61055f565b60405190602082018281106001600160401b0382111761059b575b60405260008252565b6105a36104a8565b610592565b604051906105b5826104e7565b600a825269343ab3333632b83ab33360b11b6020830152565b503461000e57600036600319011261000e5761040d6105eb6105a8565b60405191829160208352602083019061037c565b600435906001600160a01b038216820361000e57565b602435906001600160a01b038216820361000e57565b503461000e57604036600319011261000e576106456105ff565b602435610651816117c3565b916001600160a01b0380841690821681146106b3576106839361067e913314908115610685575b506117e6565b611c86565b005b6001600160a01b0316600090815260056020908152604080832033845290915290205460ff16905038610678565b60405162461bcd60e51b815260206004820152602160248201527f4552433732313a20617070726f76616c20746f2063757272656e74206f776e656044820152603960f91b6064820152608490fd5b6040519061070f826104e7565b60078252662338434646423360c81b6020830152565b503461000e57600036600319011261000e5761040d6105eb610702565b9181601f8401121561000e578235916001600160401b03831161000e576020838186019501011161000e57565b602060031982011261000e57600435906001600160401b03821161000e5761079991600401610742565b9091565b6020815260a06107f66107bb845183602086015260c085019061037c565b602085015160408501526107e1604086015191601f19928387830301606088015261037c565b9060608601519085830301608086015261037c565b926080600180841b039101511691015290565b503461000e5761040d602061081d3661076f565b9190610827612913565b508260405193849283378101600f81520301902060405190610848826104bf565b61085181610b38565b82526001810154602083015261086960028201610b38565b604083015261087a60038201610b38565b6060830152600401546001600160a01b031660808201526040519182918261079d565b606090600319011261000e576001600160a01b0390600435828116810361000e5791602435908116810361000e579060443590565b503461000e576106836108e43661089d565b916108f76108f2843361199c565b611896565b611afc565b9291926109088261054d565b91610916604051938461051d565b82948184528183011161000e578281602093846000960137010152565b602060031982011261000e57600435906001600160401b03821161000e578060238301121561000e578160246103b2936004013591016108fc565b9061098160209282815194859201610359565b0190565b602061099e918160405193828580945193849201610359565b8101600f81520301902090565b60206109c4918160405193828580945193849201610359565b8101600d81520301902090565b503461000e5760206109e236610933565b816109f66040519283815193849201610359565b600d90820190815281900382019020546040516001600160a01b039091168152f35b60405190610a25826104e7565b600682526568677772747360d01b6020830152565b503461000e57600036600319011261000e5761040d6105eb610a18565b503461000e5760008060031936011261047457600c546001600160a01b03163303610474578080808047335af1610a8c611d5b565b5015610a955780f35b60405162461bcd60e51b81526020600482015260186024820152774661696c656420746f207769746864726177204d6174696360401b6044820152606490fd5b503461000e57610683610ae73661089d565b9060405192610af584610502565b600084526118f9565b90600182811c92168015610b2e575b6020831014610b1857565b634e487b7160e01b600052602260045260246000fd5b91607f1691610b0d565b9060405191826000825492610b4c84610afe565b908184526001948581169081600014610bb95750600114610b76575b505061054b9250038361051d565b9093915060005260209081600020936000915b818310610ba157505061054b93508201013880610b68565b85548884018501529485019487945091830191610b89565b91505061054b94506020925060ff191682840152151560051b8201013880610b68565b503461000e57602036600319011261000e57600435600052601160205261040d6105eb6040600020610b38565b503461000e57610c8f610c336020610c2036610933565b8160405193828580945193849201610359565b8101600f815203019020610c4681610b38565b90610cb0600182015491610ca2610c5f60028301610b38565b93610c6c60038401610b38565b92600460018060a01b03910154169460405197889760a0895260a089019061037c565b916020880152868203604088015261037c565b90848203606086015261037c565b9060808301520390f35b503461000e57602036600319011261000e5760206104966004356117c3565b503461000e57600036600319011261000e57610cf3612913565b5033600052600e60205261040d610d15610d106040600020610b38565b610985565b60405190610848826104bf565b50606036600319011261000e576001600160401b0360043581811161000e57610d4f903690600401610742565b9160243590811161000e57610d68903690600401610742565b6001600160a01b03610d7a8585611ff8565b546001600160a01b03161615610d8f90612011565b610d998484611fb0565b610da290612053565b3360009081526010602052604090205460ff1615610dbf9061208e565b600b54341015610dce906120d4565b610dd9604435612630565b610de290612666565b918193610ded610a18565b6040519485809260208201610e03908c8c611fea565b601760f91b8152600101610e17908861096e565b601760f91b8152600101610e2a9161096e565b0390601f19918281018452610e3f908461051d565b604051809160208201610e5190612118565b610e5a9161096e565b610e639061218c565b610e6d908561096e565b610e76906121ed565b038281018252610e86908261051d565b610e91368b8b6108fc565b610e9a90612b1a565b610ea390611f08565b90610ead90612a1d565b604051693d913730b6b2911d101160b11b6020820152918291610ed3602a84018761096e565b7f222c20226465736372697074696f6e223a2022412073747564656e742061742081527f486f677761727473222c2022696d616765223a2022646174613a696d6167652f60208201526e1cdd99cade1b5b0ed8985cd94d8d0b608a1b6040820152604f01610f409161096e565b6b1116113632b733ba34111d1160a11b8152600c01610f5e9161096e565b61227d60f01b8152600201038281018252610f79908261051d565b610f8290612a1d565b6040517f646174613a6170706c69636174696f6e2f6a736f6e3b6261736536342c000000602082015291908290603d8201610fbc9161096e565b039081018252610fcc908261051d565b60075490610fda82336123b8565b610fe490826124f3565b33610fee836109ab565b80546001600160a01b0319166001600160a01b03909216919091179055336000908152600e6020526040902082611024916122a2565b336000908152601060205260409020805460ff19166001179055611052906000526011602052604060002090565b9061105c916122a2565b61106593612869565b611073600160075401600755565b6040519182913394611085928461237e565b037f78fc4bd5049206a33e22e356ba7ae0cff1f598eef8b69790fde01de4562a95da91a2005b503461000e57602036600319011261000e576001600160a01b036110cd6105ff565b1680156110f657600052600360205261040d604060002054604051918291829190602083019252565b60405162461bcd60e51b815260206004820152602960248201527f4552433732313a2061646472657373207a65726f206973206e6f7420612076616044820152683634b21037bbb732b960b91b6064820152608490fd5b6040519061115a826104e7565b600982526839b63cba3432b934b760b91b6020830152565b503461000e57600036600319011261000e5761040d6105eb61114d565b503461000e57602036600319011261000e576001600160a01b036111b16105ff565b16600052600e60205261040d6105eb6040600020610b38565b604051906111d7826104e7565b60078252662346463843384360c81b6020830152565b503461000e57600036600319011261000e5761040d6105eb6111ca565b60405190611217826104e7565b6009825268726176656e636c617760b81b6020830152565b503461000e57600036600319011261000e5761040d6105eb61120a565b503461000e57600036600319011261000e57602060018060a01b03600c54163314604051908152f35b503461000e576000806003193601126104745760405181600180549061129a82610afe565b8085529181811690811561044c57506001146112c05761040d846104018188038261051d565b80945082526020938483205b8284106112e8575050508161040d9361040192820101936103f1565b80548585018701529285019281016112cc565b503461000e57602061131561130f3661076f565b90611fb0565b6040519015158152f35b503461000e57604036600319011261000e576113396105ff565b602435801515810361000e576001600160a01b038216913383146113c757816113846113959233600052600560205260406000209060018060a01b0316600052602052604060002090565b9060ff801983541691151516179055565b604051901515815233907f17307eab39ab6107e8899845ad3d59bd9653f200f220920489ca2b5937696c3190602090a3005b60405162461bcd60e51b815260206004820152601960248201527822a9219b99189d1030b8383937bb32903a379031b0b63632b960391b6044820152606490fd5b503461000e57602036600319011261000e576001600160a01b0361142a6105ff565b166000526010602052602060ff604060002054166040519015158152f35b60405190611455826104e7565b60078252662346444646384360c81b6020830152565b503461000e57600036600319011261000e5761040d6105eb611448565b503461000e57608036600319011261000e576114a26105ff565b6114aa610615565b606435916001600160401b03831161000e573660238401121561000e576114de6106839336906024816004013591016108fc565b91604435916118f9565b503461000e57602061150b6114fc3661076f565b6001600160a01b039291611ff8565b5416604051908152f35b503461000e57602036600319011261000e5760043560008181526002602052604090205461154d906001600160a01b0316151561177c565b600052600660205261040d6115656040600020610b38565b600060405161157381610502565b5260405191829160208352602083019061037c565b60405190611595826104e7565b6007825266119c21a120a32360c91b6020830152565b503461000e57600036600319011261000e5761040d6105eb611588565b503461000e57604036600319011261000e57602060ff61161a6115e96105ff565b6115f1610615565b6001600160a01b0391821660009081526005865260408082209290931681526020919091522090565b54166040519015158152f35b60405190611633826104e7565b600a82526933b93cb33334b73237b960b11b6020830152565b503461000e57600036600319011261000e5761040d6105eb611626565b602080820190808352835180925260408301928160408460051b8301019501936000915b84831061169d5750505050505090565b90919293949584806116bb600193603f198682030187528a5161037c565b980193019301919493929061168d565b503461000e57600036600319011261000e576007546116e981612940565b906116f7604051928361051d565b808252601f1961170682612940565b0160005b81811061176b57505060005b81811061172b576040518061040d8582611669565b8061174b611746611766936000526011602052604060002090565b610b38565b6117558286612966565b526117608185612966565b50611e88565b611716565b80606060208093870101520161170a565b1561178357565b60405162461bcd60e51b8152602060048201526018602482015277115490cdcc8c4e881a5b9d985b1a59081d1bdad95b88125160421b6044820152606490fd5b6000908152600260205260409020546001600160a01b03166103b281151561177c565b156117ed57565b60405162461bcd60e51b815260206004820152603e60248201527f4552433732313a20617070726f76652063616c6c6572206973206e6f7420746f60448201527f6b656e206f776e6572206e6f7220617070726f76656420666f7220616c6c00006064820152608490fd5b60008181526002602052604090205461187b906001600160a01b0316151561177c565b6000908152600460205260409020546001600160a01b031690565b1561189d57565b60405162461bcd60e51b815260206004820152602e60248201527f4552433732313a2063616c6c6572206973206e6f7420746f6b656e206f776e6560448201526d1c881b9bdc88185c1c1c9bdd995960921b6064820152608490fd5b9161054b9391611920936119106108f2843361199c565b61191b838383611afc565b611e4c565b611978565b60809060208152603260208201527f4552433732313a207472616e7366657220746f206e6f6e20455243373231526560408201527131b2b4bb32b91034b6b83632b6b2b73a32b960711b60608201520190565b1561197f57565b60405162461bcd60e51b81528061199860048201611925565b0390fd5b6001600160a01b03806119ae846117c3565b1692818316928484149485156119e4575b505083156119ce575b50505090565b6119da91929350611858565b16143880806119c8565b60009081526005602090815260408083206001600160a01b03949094168352929052205460ff16935038806119bf565b15611a1b57565b60405162461bcd60e51b8152602060048201526024808201527f4552433732313a207472616e7366657220746f20746865207a65726f206164646044820152637265737360e01b6064820152608490fd5b50634e487b7160e01b600052601160045260246000fd5b600019810191908211611a9257565b61054b611a6c565b9060018201809211611a9257565b9060028201809211611a9257565b9060208201809211611a9257565b9060068201809211611a9257565b9060058201809211611a9257565b9060048201809211611a9257565b9060038201809211611a9257565b90611b06836117c3565b6001600160a01b038381169290918216839003611bdf57611b55611bb892821694611b32861515611a14565b611b3b87611c32565b6001600160a01b0316600090815260036020526040902090565b611b5f8154611a83565b90556001600160a01b0381166000908152600360205260409020611b838154611a9a565b9055611b99856000526002602052604060002090565b80546001600160a01b0319166001600160a01b03909216919091179055565b7fddf252ad1be2c89b69c2b068fc378daa952ba7f163c4a11628f55a4df523b3ef600080a4565b60405162461bcd60e51b815260206004820152602560248201527f4552433732313a207472616e736665722066726f6d20696e636f72726563742060448201526437bbb732b960d91b6064820152608490fd5b600081815260046020526040812080546001600160a01b03191690556001600160a01b03611c5f836117c3565b167f8c5be1e5ebec7d5bd14f71427d1e84f3dd0314c0f7b2291e5b200ac8c7c3b9258280a4565b600082815260046020526040902080546001600160a01b0319166001600160a01b0383161790556001600160a01b0380611cbf846117c3565b169116907f8c5be1e5ebec7d5bd14f71427d1e84f3dd0314c0f7b2291e5b200ac8c7c3b925600080a4565b9081602091031261000e57516103b2816102d8565b6103b2939260809260018060a01b03168252600060208301526040820152816060820152019061037c565b6001600160a01b0391821681529116602082015260408101919091526080606082018190526103b29291019061037c565b3d15611d86573d90611d6c8261054d565b91611d7a604051938461051d565b82523d6000602084013e565b606090565b909190803b15611e4457611dbd602091600093604051948580948193630a85bd0160e11b998a84523360048501611cff565b03926001600160a01b03165af160009181611e14575b50611e0657611de0611d5b565b80519081611e015760405162461bcd60e51b81528061199860048201611925565b602001fd5b6001600160e01b0319161490565b611e3691925060203d8111611e3d575b611e2e818361051d565b810190611cea565b9038611dd3565b503d611e24565b505050600190565b92909190823b15611e7f57611dbd926020926000604051809681958294630a85bd0160e11b9a8b85523360048601611d2a565b50505050600190565b6001906000198114611e98570190565b610981611a6c565b90611eaa8261054d565b611eb7604051918261051d565b8281528092611ec8601f199161054d565b0190602036910137565b50634e487b7160e01b600052603260045260246000fd5b906020918051821015611efb57010190565b611f03611ed2565b010190565b8015611f92576000818181805b611f7a5750611f2381611ea0565b935b611f2f5750505090565b611f3890611a83565b90600a9060308282068101809111611f6d575b60f81b6001600160f81b031916841a611f648487611ee9565b53049081611f25565b611f75611a6c565b611f4b565b9150611f87600a91611e88565b910480849291611f15565b50604051611f9f816104e7565b60018152600360fc1b602082015290565b6003611fc5611fc03685856108fc565b612b1a565b10159182611fd257505090565b60149250611fe591611fc09136916108fc565b111590565b908092918237016000815290565b6020908260405193849283378101600d81520301902090565b1561201857565b60405162461bcd60e51b81526020600482015260136024820152724e616d6520616c72656164792065786973747360681b6044820152606490fd5b1561205a57565b60405162461bcd60e51b815260206004820152600c60248201526b496e76616c6964206e616d6560a01b6044820152606490fd5b1561209557565b60405162461bcd60e51b81526020600482015260176024820152761059191c995cdcc8185b1c9958591e48185c1c1b1a5959604a1b6044820152606490fd5b156120db57565b60405162461bcd60e51b8152602060048201526015602482015274139bdd08195b9bdd59da0813585d1a58c81c185a59605a1b6044820152606490fd5b6008546000929161212882610afe565b91600190818116908115612179575060011461214357505050565b9091929350600860005260209081600020906000915b85831061216857505050500190565b805485840152918301918101612159565b60ff191683525050811515909102019150565b6009546000929161219c82610afe565b9160019081811690811561217957506001146121b757505050565b9091929350600960005260209081600020906000915b8583106121dc57505050500190565b8054858401529183019181016121cd565b600a54600092916121fd82610afe565b91600190818116908115612179575060011461221857505050565b9091929350600a60005260209081600020906000915b85831061223d57505050500190565b80548584015291830191810161222e565b90601f811161225c57505050565b600091825260208220906020601f850160051c83019410612298575b601f0160051c01915b82811061228d57505050565b818155600101612281565b9092508290612278565b91909182516001600160401b038111612371575b6122ca816122c48454610afe565b8461224e565b602080601f83116001146123065750819293946000926122fb575b50508160011b916000199060031b1c1916179055565b0151905038806122e5565b90601f1983169561231c85600052602060002090565b926000905b88821061235957505083600195969710612340575b505050811b019055565b015160001960f88460031b161c19169055388080612336565b80600185968294968601518155019501930190612321565b6123796104a8565b6122b6565b826103b2949360609360408452816040850152848401376000838284010152601f801991011681019060208382840301910152019061037c565b906040516123c581610502565b600081526001600160a01b0383169182156124af576000818152600260205260409020546001600160a01b031661246a5783816119209461241b61054b9760018060a01b03166000526003602052604060002090565b6124258154611a9a565b905561243f83611b99846000526002602052604060002090565b60007fddf252ad1be2c89b69c2b068fc378daa952ba7f163c4a11628f55a4df523b3ef8180a4611d8b565b60405162461bcd60e51b815260206004820152601c60248201527f4552433732313a20746f6b656e20616c7265616479206d696e746564000000006044820152606490fd5b606460405162461bcd60e51b815260206004820152602060248201527f4552433732313a206d696e7420746f20746865207a65726f20616464726573736044820152fd5b6000818152600260205260409020549192916001600160a01b0316156125d4576000526020600681526040600020908351906001600160401b0382116125c7575b612548826125428554610afe565b8561224e565b80601f83116001146125765750819293946000926122fb5750508160011b916000199060031b1c1916179055565b90601f1983169561258c85600052602060002090565b926000905b8882106125af5750508360019596971061234057505050811b019055565b80600185968294968601518155019501930190612591565b6125cf6104a8565b612534565b60405162461bcd60e51b815260206004820152602e60248201527f45524337323155524953746f726167653a2055524920736574206f66206e6f6e60448201526d32bc34b9ba32b73a103a37b5b2b760911b6064820152608490fd5b606490604051602081019142835260408201524460608201523360601b60808201526074815261265f816104bf565b5190200690565b6060908190601981116126875750505061267e611626565b906103b26111ca565b601a81101580612710575b156126ab575050506126a261114d565b906103b2610702565b603381101580612705575b156126cf575050506126c66105a8565b906103b2611448565b604c8194929394101590816126f9575b501561054b579150506126f061120a565b906103b2611588565b606491501115386126df565b50604b8111156126b6565b506032811115612692565b91909182519283516001600160401b03811161285c575b612740816125428554610afe565b6020948590601f83116001146127e2579261054b9596836127b6946080946004976000926127d7575b50508160011b916000199060031b1c19161786555b81015160018601556127976040820151600287016122a2565b6127a86060820151600387016122a2565b01516001600160a01b031690565b910180546001600160a01b0319166001600160a01b03909216919091179055565b015190503880612769565b90601f198316916127f886600052602060002090565b9260005b8181106128455750846080946004979461054b9a9b946127b6986001951061282c575b505050811b01865561277e565b015160001960f88460031b161c1916905538808061281f565b9293896001819287860151815501950193016127fc565b6128646104a8565b612732565b9192916001600160a01b0361287d826109ab565b541633036128c3576128ae6128be9261054b9561289861053e565b95848752426020880152604087015236916108fc565b6060840152336080840152610985565b61271b565b60405162461bcd60e51b815260206004820152602260248201527f4e6f207065726d697373696f6e20746f206d6f6469667920746865207265636f6044820152611c9960f21b6064820152608490fd5b60405190612920826104bf565b600060808360608152826020820152606060408201526060808201520152565b6020906001600160401b038111612959575b60051b0190565b6129616104a8565b612952565b602091815181101561297b575b60051b010190565b612983611ed2565b612973565b600281901b91906001600160fe1b03811603611a9257565b60405190606082018281106001600160401b03821117612a10575b604052604082527f6768696a6b6c6d6e6f707172737475767778797a303132333435363738392b2f6040837f4142434445464748494a4b4c4d4e4f505152535455565758595a61626364656660208201520152565b612a186104a8565b6129bb565b8051908115612b1057612a41612a3c612a3584611aa8565b6003900490565b612988565b91612a53612a4e84611ab6565b611ea0565b90612a5c6129a0565b92600092602081015b8484811015612ac95790600491600380910196850101516001603f9080828460121c168b010151918a60ff9384848488600c1c1684010151168585600894868a60061c160101511691831b01821b01901b93168a010151160160e01b815201612a65565b509350949350506003900680600114612afc57600214612aea575b50815290565b603d60f81b6000199091015238612ae4565b50613d3d60f01b6001199091015238612ae4565b50506103b2610577565b6000815191815b838110612b2f575050905090565b80612b5e612b51612b43612b7a9486611ee9565b516001600160f81b03191690565b6001600160f81b03191690565b600160ff1b811015612b805750612b7490611a9a565b92611e88565b91612b21565b600760fd1b811015612b965750612b7490611aa8565b600f60fc1b811015612bac5750612b7490611aee565b601f60fb1b811015612bc25750612b7490611ae0565b603f60fa1b1115612bd657612b7490611ad2565b612b7490611ac456fea26469706673582212207b14a12f0136b9e0cd7ba08e16d2f42bedf7a53981f4b972a1dd2f55f25fb79f64736f6c634300081100333d22353422206865696768743d223438222066696c6c3d2275726c2823706174","opcodes":"PUSH1 0x19 PUSH1 0x80 DUP2 DUP2 MSTORE PUSH32 0x486F6777617274732053747564656E7473205365727669636500000000000000 PUSH1 0xA0 MSTORE PUSH2 0x100 PUSH1 0x40 SWAP1 DUP2 MSTORE PUSH1 0x3 PUSH1 0xC0 DUP2 DUP2 MSTORE PUSH3 0x485353 PUSH1 0xE8 SHL PUSH1 0xE0 MSTORE SWAP2 SWAP4 SWAP3 PUSH1 0x20 SWAP3 SWAP1 SWAP2 PUSH1 0x1 PUSH1 0x1 PUSH1 0x40 SHL SUB PUSH1 0x0 SWAP6 DUP1 PUSH3 0x63 DUP9 SLOAD PUSH3 0x1648 JUMP JUMPDEST SWAP6 PUSH1 0x1F SWAP7 DUP8 DUP2 GT PUSH3 0x1618 JUMPI JUMPDEST POP DUP8 SWAP1 DUP8 DUP4 GT PUSH1 0x1 EQ PUSH3 0x15B1 JUMPI DUP10 SWAP3 PUSH3 0x15A5 JUMPI JUMPDEST POP POP DUP2 PUSH1 0x1 SHL SWAP2 PUSH1 0x0 NOT SWAP1 DUP6 SHL SHR NOT AND OR DUP7 SSTORE JUMPDEST DUP3 MLOAD SWAP1 DUP2 GT PUSH3 0x1591 JUMPI PUSH1 0x1 SWAP3 PUSH3 0xB3 DUP5 SLOAD PUSH3 0x1648 JUMP JUMPDEST DUP6 DUP2 GT PUSH3 0x1556 JUMPI JUMPDEST POP DUP6 SWAP1 DUP6 DUP4 GT PUSH1 0x1 EQ PUSH3 0x14E0 JUMPI PUSH1 0x0 DUP1 MLOAD PUSH1 0x20 PUSH3 0x42B4 DUP4 CODECOPY DUP2 MLOAD SWAP2 MSTORE SWAP4 SWAP3 SWAP2 DUP9 SWAP2 DUP4 PUSH3 0x14D4 JUMPI JUMPDEST POP POP PUSH1 0x0 NOT DUP3 DUP5 SHL SHR NOT AND SWAP1 DUP5 SHL OR DUP4 SSTORE JUMPDEST PUSH3 0x105 PUSH1 0x8 SLOAD PUSH3 0x1648 JUMP JUMPDEST DUP5 DUP2 GT PUSH3 0x14B0 JUMPI JUMPDEST POP PUSH2 0x17D PUSH1 0x8 SSTORE PUSH1 0x8 DUP7 MSTORE PUSH32 0x696474683D2232373022206865696768743D22323730222066696C6C3D220000 PUSH1 0x5 DUP7 DUP9 KECCAK256 PUSH32 0x3C73766720786D6C6E733D22687474703A2F2F7777772E77332E6F72672F3230 DUP2 SSTORE PUSH32 0x30302F737667222077696474683D2232373022206865696768743D2232373022 DUP7 DUP3 ADD SSTORE PUSH32 0x2066696C6C3D226E6F6E65223E3C6720636C69702D706174683D2275726C2823 PUSH1 0x2 DUP3 ADD SSTORE PUSH32 0x636C6970305F325F3429223E3C726563742077696474683D2232373022206865 DUP5 DUP3 ADD SSTORE PUSH32 0x696768743D22323730222066696C6C3D227768697465222F3E3C726563742077 PUSH1 0x4 DUP3 ADD SSTORE ADD SSTORE PUSH3 0x207 PUSH1 0x9 SLOAD PUSH3 0x1648 JUMP JUMPDEST DUP5 DUP2 GT PUSH3 0x148C JUMPI JUMPDEST POP PUSH2 0x1E61 PUSH1 0x9 SSTORE PUSH1 0x9 DUP7 MSTORE PUSH32 0x353722206865696768743D223436222066696C6C3D2275726C28237061747465 DUP6 DUP8 KECCAK256 SWAP4 PUSH32 0x222F3E3C7265637420783D223131332220793D22313237222077696474683D22 DUP6 SSTORE DUP5 ADD SSTORE PUSH32 0x726E3029222F3E3C7265637420783D2239392220793D22393722207769647468 PUSH1 0x2 DUP5 ADD SSTORE DUP3 ADD SSTORE PUSH32 0x7465726E3129222F3E3C2F673E3C646566733E3C7061747465726E2069643D22 PUSH1 0x4 DUP3 ADD SSTORE PUSH32 0x7061747465726E3022207061747465726E436F6E74656E74556E6974733D226F PUSH1 0x5 DUP3 ADD SSTORE PUSH32 0x626A656374426F756E64696E67426F78222077696474683D2231222068656967 PUSH1 0x6 DUP3 ADD SSTORE PUSH32 0x68743D2231223E3C75736520687265663D2223696D616765305F325F34222074 PUSH1 0x7 DUP3 ADD SSTORE PUSH32 0x72616E73666F726D3D227472616E736C61746528302E30393634393132292073 PUSH1 0x8 DUP3 ADD SSTORE PUSH32 0x63616C6528302E303038343036343320302E3031303431363729222F3E3C2F70 PUSH1 0x9 DUP3 ADD SSTORE PUSH32 0x61747465726E3E3C7061747465726E2069643D227061747465726E3122207061 PUSH1 0xA DUP3 ADD SSTORE PUSH32 0x747465726E436F6E74656E74556E6974733D226F626A656374426F756E64696E PUSH1 0xB DUP3 ADD SSTORE PUSH32 0x67426F78222077696474683D223122206865696768743D2231223E3C75736520 PUSH1 0xC DUP3 ADD SSTORE PUSH32 0x687265663D2223696D616765315F325F3422207472616E73666F726D3D227472 PUSH1 0xD DUP3 ADD SSTORE PUSH32 0x616E736C61746528302E3035353535353629207363616C6528302E3030393235 PUSH1 0xE DUP3 ADD SSTORE PUSH32 0x39323620302E3031303431363729222F3E3C2F7061747465726E3E3C636C6970 PUSH1 0xF DUP3 ADD SSTORE PUSH32 0x506174682069643D22636C6970305F325F34223E3C726563742077696474683D PUSH1 0x10 DUP3 ADD SSTORE PUSH32 0x2232373022206865696768743D22323730222066696C6C3D227768697465222F PUSH1 0x11 DUP3 ADD SSTORE PUSH32 0x3E3C2F636C6970506174683E3C696D6167652069643D22696D616765305F325F PUSH1 0x12 DUP3 ADD SSTORE PUSH32 0x34222077696474683D22393622206865696768743D2239362220687265663D22 PUSH1 0x13 DUP3 ADD SSTORE PUSH32 0x646174613A696D6167652F706E673B6261736536342C6956424F5277304B4767 PUSH1 0x14 DUP3 ADD SSTORE PUSH32 0x6F414141414E5355684555674141414741414141426743415941414144696D48 PUSH1 0x15 DUP3 ADD SSTORE PUSH32 0x633441414141426D4A4C523051412F77442F41502B6776616554414141447145 PUSH1 0x16 DUP3 ADD SSTORE PUSH32 0x6C45515652346E4F32644F576756555252417A38544544515652555152424931 PUSH1 0x17 DUP3 ADD SSTORE PUSH32 0x6A45526B456842446455304D4A57454A743042745465306C3054437773334247 PUSH1 0x18 DUP3 ADD SSTORE PUSH32 0x3073465255734241556C6C59697068494346416130535538576654534A694849 PUSH1 0x19 DUP3 ADD SSTORE PUSH32 0x75586A7A484F2F374F2B643265354232373159656265637964764A752B395078 PUSH1 0x1A DUP3 ADD SSTORE PUSH32 0x3855463351417A34467859415A34425777587A61684364414931774638515532 PUSH1 0x1B DUP3 ADD SSTORE PUSH32 0x6754724E4F4A75656F5879712F4853376E55796B2B596642387A48436B576943 PUSH1 0x1C DUP3 ADD SSTORE PUSH32 0x4C664237354C4A56686D6F737233675764434F5A61574F504A727742615A4E4D PUSH1 0x1D DUP3 ADD SSTORE PUSH32 0x764A54754162306553505935716C5A49544B4630546C43364C79425648356771 PUSH1 0x1E DUP3 ADD SSTORE PUSH32 0x68385156532B49437066454A5576694D6F58524F554C6F76494655666D437148 DUP3 DUP3 ADD SSTORE PUSH32 0x784274684B3868717679486645516C532F4B454370666C416C55766968684464 DUP4 DUP3 ADD SSTORE PUSH32 0x676A6C316F316D4B4A3541315A6B65624B574C413957457279517A2F30735436 PUSH1 0x21 DUP3 ADD SSTORE PUSH32 0x594E2B4A38774A3739646E71794B36462B414D453462304A726C775170414B37 PUSH1 0x22 DUP3 ADD SSTORE PUSH32 0x437977576531694D6649744146565952746D542F34766F76325832797A61484F PUSH1 0x23 DUP3 ADD SSTORE PUSH32 0x6465654F4A73463477536939796D58327A697A4770476A62423768444B484466 PUSH1 0x24 DUP3 ADD SSTORE PUSH32 0x6B362F6B636B3632476E48684D75697967717475543777464F48645251536D2F PUSH1 0x25 DUP3 ADD SSTORE PUSH32 0x4C484D4973315367506979502B4A75542F556F396B4533446A77474E6A6F7270 PUSH1 0x26 DUP3 ADD SSTORE PUSH32 0x54696F577534677168385156532B51355944657A455332346733357176386C50 PUSH1 0x27 DUP3 ADD SSTORE PUSH32 0x5141302F77564F6B4C343071484B7A34674C4A48393056506B7055666D435645 PUSH1 0x28 DUP3 ADD SSTORE PUSH32 0x4B2B79356D397063412B34436A6D36575539734748757336397A38525A344178 PUSH1 0x29 DUP3 ADD SSTORE PUSH32 0x77417A6955387A775277424268496B32795A57417630417050596D53496F354A PUSH1 0x2A DUP3 ADD SSTORE PUSH32 0x5876676862674C4F4837624C4B4D456171337A4272494F7377536F4376783832 PUSH1 0x2B DUP3 ADD SSTORE PUSH32 0x4F58672F70797A57466746426E3550724462666F6E355A416C7741374E785355 PUSH1 0x2C DUP3 ADD SSTORE PUSH32 0x722B4A4C444D6471463570415034674A7A346570793058576765366562666151 PUSH1 0x2D DUP3 ADD SSTORE PUSH32 0x4B704F472B37304C7978436E69457650684B796A384944434D76766E4C794677 PUSH1 0x2E DUP3 ADD SSTORE PUSH32 0x505867566E6B786676415262766C356F74323442337930756648667173564F79 PUSH1 0x2F DUP3 ADD SSTORE PUSH32 0x4471377568755942446F7370684C4567354A4A32436231634154354B2F305274 PUSH1 0x30 DUP3 ADD SSTORE PUSH32 0x467672335235756F417679457475466B505771686645777A785A354F56473279 PUSH1 0x31 DUP3 ADD SSTORE PUSH32 0x796D4C446B513552547959715047744355486F6E7843586D7A552B477A4A6754 PUSH1 0x32 DUP3 ADD SSTORE PUSH32 0x4F436E6F4C616E5765526E464870424E49533149416933646A65537965516C71 PUSH1 0x33 DUP3 ADD SSTORE PUSH32 0x414739446E50496A6D7670524F777852586B782F6577474B506B632F2B586B5A PUSH1 0x34 DUP3 ADD SSTORE PUSH32 0x66634C436F784433514E656446424D59315A643634456552794F7A6C69744F49 PUSH1 0x35 DUP3 ADD SSTORE PUSH32 0x663049532B3948763155394B75695635475858774D32325334307A306A664534 PUSH1 0x36 DUP3 ADD SSTORE PUSH32 0x37624C7A482F534458686E6F7669696B49766275562F7848784452706D487179 PUSH1 0x37 DUP3 ADD SSTORE PUSH32 0x624D6F443936325241585430656E6E56565451447A674A76626B763643696A35 PUSH1 0x38 DUP3 ADD SSTORE PUSH32 0x7878734E57455957434E777A6F4B6A516663496A763573356A4E58306F4D736D PUSH1 0x39 DUP3 ADD SSTORE PUSH32 0x7A434A6365356C775950754530362B51506F65396C53345146335343612F426D PUSH1 0x3A DUP3 ADD SSTORE PUSH32 0x78326E334C35534E714545784C4A6C685550754574302B66646C30697733555A PUSH1 0x3B DUP3 ADD SSTORE PUSH32 0x7377524D5A764A56662B457461454838414F7365777151677677674F41473941 PUSH1 0x3C DUP3 ADD SSTORE PUSH32 0x6A6D56536B387A464C69494F5A31417633414D64474D46455652464557515036 PUSH1 0x3D DUP3 ADD SSTORE PUSH32 0x777566744F6569446E744141414141456C46546B5375516D4343222F3E3C696D PUSH1 0x3E DUP3 ADD SSTORE PUSH32 0x6167652069643D22696D616765315F325F34222077696474683D223936222068 PUSH1 0x3F DUP3 ADD SSTORE PUSH32 0x65696768743D2239362220687265663D22646174613A696D6167652F706E673B DUP6 DUP3 ADD SSTORE PUSH32 0x6261736536342C6956424F5277304B47676F414141414E535568455567414141 PUSH1 0x41 DUP3 ADD SSTORE PUSH32 0x4741414141426743415941414144696D48633441414141426D4A4C523051412F PUSH1 0x42 DUP3 ADD SSTORE PUSH32 0x77442F41502B67766165544141414556306C45515652346E4F32645359735653 PUSH1 0x43 DUP3 ADD SSTORE PUSH32 0x5243415032326E7355456432745A78785630504B71346736726A67306E723149 PUSH1 0x44 DUP3 ADD SSTORE PUSH32 0x6A4E6531482F67306173694B4D35683844427A6D463867714F44644255565150 PUSH1 0x45 DUP3 ADD SSTORE PUSH32 0x41796F7543414B436F4A4C69394274747A497933646F653468574939764B364B PUSH1 0x46 DUP3 ADD SSTORE PUSH32 0x6A4D6A71696F2B4342343072374D694D696F694D794F7A366F486A4F49376A4F PUSH1 0x47 DUP3 ADD SSTORE PUSH32 0x49376A4F45353439674E766763464138674634414A7742566961306F39524D42 PUSH1 0x48 DUP3 ADD SSTORE PUSH32 0x3834527A676D5A6641622B426C72546D564A75516B64444A6C64784A7A524E72 PUSH1 0x49 DUP3 ADD SSTORE PUSH32 0x476A344B365552565342304E4177414B354A6155414861675838493534512F30 PUSH1 0x4A DUP3 ADD SSTORE PUSH32 0x36706648554A46772F3355696C654A454E48516D317A72436C49304368616C56 PUSH1 0x4B DUP3 ADD SSTORE PUSH32 0x7A6B2F34375556694D427562515847516855647345746267624A544E4157396F PUSH1 0x4C DUP3 ADD SSTORE PUSH32 0x356F33566A4B4F5574774A36354E726E5A4D57625157473443627769574B352F PUSH1 0x4D DUP3 ADD SSTORE PUSH32 0x466D6A4861634152534C686B6F4B2B6C535376452F34443268543072527A7A79 PUSH1 0x4E DUP3 ADD SSTORE PUSH32 0x423846705A694F577038742F467267663073784861327941306F524164613551 PUSH1 0x4F DUP3 ADD SSTORE PUSH32 0x2F345539426D596C6C376C366A415A7166455857512F7354363731474C476367 PUSH1 0x50 DUP3 ADD SSTORE PUSH32 0x6A5A52664A316966687977374941692B54396A62344132617373566970636B7A PUSH1 0x51 DUP3 ADD SSTORE PUSH32 0x4A656E72555A41433741685546756D5A304E57486241614759524459486F6373 PUSH1 0x52 DUP3 ADD SSTORE PUSH32 0x4F714145506B2F5978643237545372574567486441427241375958464B734F32 PUSH1 0x53 DUP3 ADD SSTORE PUSH32 0x4279345064506A6744574B464F43385042324141345233674E6E79744D555546 PUSH1 0x54 DUP3 ADD SSTORE PUSH32 0x444C2F5A30794D314735684C4470675336523254553948725443463467573434 PUSH1 0x55 DUP3 ADD SSTORE PUSH32 0x655466684861556C6A33453658797A35576C724B53686D6E68345037496A5966 PUSH1 0x56 DUP3 ADD SSTORE PUSH32 0x6937713541447763574245577044547A62465330434477504A6B314A57516463 PUSH1 0x57 DUP3 ADD SSTORE PUSH32 0x54732F4531506C615573704B4E55383356525A6F6F344F38484667474636514A PUSH1 0x58 DUP3 ADD SSTORE PUSH32 0x67583536656B686D452B617A732F457A4F6C704B336443366A714E6D58484148 PUSH1 0x59 DUP3 ADD SSTORE PUSH32 0x654141634A65304B636873655671446D4157346B635245464668495152765265 PUSH1 0x5A DUP3 ADD SSTORE PUSH32 0x564C487848545567674F304E6B6F366C6135726A6C416E344D59714A73725432 PUSH1 0x5B DUP3 ADD SSTORE PUSH32 0x68455138675463574446526E745A32774272436E59444C672F6F346F4F304137 PUSH1 0x5C DUP3 ADD SSTORE PUSH32 0x59317939645054645866414170544C30396F4F434830434C672B713677464E42 PUSH1 0x5D DUP3 ADD SSTORE PUSH32 0x3877483569706550364F324474424F50786B375565794843516D764E524E3530 PUSH1 0x5E DUP3 ADD SSTORE PUSH32 0x65704B354F5636366A4F51426833416265416538504162655A586934754D6974 PUSH1 0x5F DUP3 ADD SSTORE PUSH32 0x54734232655064444778463776595A6B61345669396649437A39754172655152 PUSH1 0x60 DUP3 ADD SSTORE PUSH32 0x32623756545561685137674948414236454E6E64527454656F487A4452765656 PUSH1 0x61 DUP3 ADD SSTORE PUSH32 0x39415A72634476794A74724E537161576A4B416C46422B512B6D4E76644F4155 PUSH1 0x62 DUP3 ADD SSTORE PUSH32 0x30425845387057586271416B306747694534726341546F546D52636D6151504F PUSH1 0x63 DUP3 ADD SSTORE PUSH32 0x4562456A5A366C794F784132314472386868596E724F506836555465472F4175 PUSH1 0x64 DUP3 ADD SSTORE PUSH32 0x4C4A4944774558654D756F3571776D7476514353334C3039772F45654E563858 PUSH1 0x65 DUP3 ADD SSTORE PUSH32 0x655473614A33627A454B73422F6935696538355039494E544233704338335551 PUSH1 0x66 DUP3 ADD SSTORE PUSH32 0x5034506F3073744758586C334977444C676451704B3445655435354B54344479 PUSH1 0x67 DUP3 ADD SSTORE PUSH32 0x694D39774F49632F54306B6E636A5052326B625652627049304B31647A587731 PUSH1 0x68 DUP3 ADD SSTORE PUSH32 0x4942783175554A7343706E4834394B473341432B476A41554776794554694F50 PUSH1 0x69 DUP3 ADD SSTORE PUSH32 0x4A55666E562B41502F43613047436A443034332B69513562634268344472314B PUSH1 0x6A DUP3 ADD SSTORE PUSH32 0x3064664177355273506757636B64734A7241504762433359576A544968447667 PUSH1 0x6B DUP3 ADD SSTORE PUSH32 0x42764974507769556F5975544B77747958484976752F32686D796A6646755362 PUSH1 0x6C DUP3 ADD SSTORE PUSH32 0x35414F763446452B43506B3767394B4C41634D5254747943476F465571374E50 PUSH1 0x6D DUP3 ADD SSTORE PUSH32 0x68636D31754E377570484F66666A4E35374F475245665438497A4A7742786B45 PUSH1 0x6E DUP3 ADD SSTORE PUSH32 0x4A754E524D6F4D5946626A622B3349527442454A4E2F2B424578435676465A6A PUSH1 0x6F DUP3 ADD SSTORE PUSH32 0x656F393841565A712F516A5438423851736F6F33636950784C3147306B595863 PUSH1 0x70 DUP3 ADD SSTORE PUSH32 0x754C684C6641536D624D376A754D346A754D346A754D6B347975514732742B35 PUSH1 0x71 DUP3 ADD SSTORE PUSH32 0x696D54536741414141424A52553545726B4A6767673D3D222F3E3C2F64656673 PUSH1 0x72 DUP3 ADD SSTORE PUSH32 0x3E3C7465787420783D223530252220793D223830252220646F6D696E616E742D PUSH1 0x73 DUP3 ADD SSTORE PUSH32 0x626173656C696E653D226D6964646C652220746578742D616E63686F723D226D PUSH1 0x74 DUP3 ADD SSTORE PUSH32 0x6964646C652220666F6E742D73697A653D223135222066696C6C3D22626C6163 PUSH1 0x75 DUP3 ADD SSTORE PUSH32 0x6B2220666F6E742D66616D696C793D22506C7573204A616B617274612053616E PUSH1 0x76 DUP3 ADD SSTORE PUSH32 0x732C44656A6156752053616E732C4E6F746F20436F6C6F7220456D6F6A692C41 PUSH1 0x77 DUP3 ADD SSTORE PUSH32 0x70706C6520436F6C6F7220456D6F6A692C73616E732D73657269662220666F6E PUSH1 0x78 DUP3 ADD SSTORE PUSH1 0x79 PUSH16 0x3A16BBB2B4B3B43A1E913137B632111F PUSH1 0x81 SHL SWAP2 ADD SSTORE PUSH3 0x1410 PUSH1 0xA SLOAD PUSH3 0x1648 JUMP JUMPDEST SWAP2 DUP2 DUP4 GT PUSH3 0x146A JUMPI JUMPDEST PUSH32 0x3C2F746578743E3C2F7376673E0000000000000000000000000000000000001A PUSH1 0xA SSTORE PUSH7 0x38D7EA4C68000 PUSH1 0xB SSTORE PUSH1 0xC DUP1 SLOAD PUSH1 0x1 PUSH1 0x1 PUSH1 0xA0 SHL SUB NOT AND CALLER OR SWAP1 SSTORE DUP5 MLOAD PUSH2 0x2C15 SWAP1 DUP2 PUSH3 0x169F DUP3 CODECOPY RETURN JUMPDEST DUP4 PUSH1 0xA PUSH3 0x1482 SWAP6 MSTORE KECCAK256 SWAP2 ADD PUSH1 0x5 SHR DUP2 ADD SWAP1 PUSH3 0x1685 JUMP JUMPDEST CODESIZE DUP1 DUP1 DUP1 PUSH3 0x141A JUMP JUMPDEST PUSH1 0x9 DUP8 MSTORE DUP6 DUP8 KECCAK256 PUSH3 0x14A9 SWAP2 DUP7 ADD PUSH1 0x5 SHR DUP2 ADD SWAP1 PUSH1 0x7A ADD PUSH3 0x1685 JUMP JUMPDEST CODESIZE PUSH3 0x210 JUMP JUMPDEST PUSH1 0x8 DUP8 MSTORE DUP6 DUP8 KECCAK256 PUSH3 0x14CD SWAP2 DUP7 ADD PUSH1 0x5 SHR DUP2 ADD SWAP1 PUSH1 0x6 ADD PUSH3 0x1685 JUMP JUMPDEST CODESIZE PUSH3 0x10E JUMP JUMPDEST ADD MLOAD SWAP1 POP CODESIZE DUP1 PUSH3 0xE6 JUMP JUMPDEST SWAP3 SWAP2 DUP5 SWAP2 PUSH1 0x1F NOT DUP3 AND SWAP1 DUP4 DUP11 MSTORE DUP9 DUP11 KECCAK256 SWAP2 DUP11 JUMPDEST DUP11 DUP3 DUP3 LT PUSH3 0x153F JUMPI POP POP SWAP6 DUP4 PUSH1 0x0 DUP1 MLOAD PUSH1 0x20 PUSH3 0x42B4 DUP4 CODECOPY DUP2 MLOAD SWAP2 MSTORE SWAP8 LT PUSH3 0x1526 JUMPI JUMPDEST POP POP POP DUP2 SHL ADD DUP4 SSTORE PUSH3 0xF8 JUMP JUMPDEST ADD MLOAD PUSH1 0x0 NOT DUP4 DUP7 SHL PUSH1 0xF8 AND SHR NOT AND SWAP1 SSTORE CODESIZE DUP1 DUP1 PUSH3 0x1518 JUMP JUMPDEST DUP4 DUP10 ADD MLOAD DUP6 SSTORE DUP10 SWAP7 SWAP1 SWAP5 ADD SWAP4 SWAP3 DUP4 ADD SWAP3 ADD PUSH3 0x14F3 JUMP JUMPDEST PUSH3 0x1580 SWAP1 DUP6 DUP10 MSTORE DUP8 DUP10 KECCAK256 DUP8 DUP1 DUP7 ADD PUSH1 0x5 SHR DUP3 ADD SWAP3 DUP11 DUP8 LT PUSH3 0x1587 JUMPI JUMPDEST ADD PUSH1 0x5 SHR ADD SWAP1 PUSH3 0x1685 JUMP JUMPDEST CODESIZE PUSH3 0xBC JUMP JUMPDEST SWAP3 POP DUP2 SWAP3 PUSH3 0x1574 JUMP JUMPDEST PUSH4 0x4E487B71 PUSH1 0xE0 SHL DUP7 MSTORE PUSH1 0x41 PUSH1 0x4 MSTORE PUSH1 0x24 DUP7 REVERT JUMPDEST ADD MLOAD SWAP1 POP CODESIZE DUP1 PUSH3 0x86 JUMP JUMPDEST DUP10 DUP1 MSTORE DUP9 DUP11 KECCAK256 SWAP3 POP PUSH1 0x1F NOT DUP5 AND DUP11 JUMPDEST DUP11 DUP3 DUP3 LT PUSH3 0x1601 JUMPI POP POP SWAP1 DUP5 PUSH1 0x1 SWAP6 SWAP5 SWAP4 SWAP3 LT PUSH3 0x15E8 JUMPI JUMPDEST POP POP POP DUP2 SHL ADD DUP7 SSTORE PUSH3 0x9A JUMP JUMPDEST ADD MLOAD PUSH1 0x0 NOT DUP4 DUP8 SHL PUSH1 0xF8 AND SHR NOT AND SWAP1 SSTORE CODESIZE DUP1 DUP1 PUSH3 0x15DA JUMP JUMPDEST PUSH1 0x1 DUP6 SWAP7 DUP3 SWAP4 SWAP7 DUP7 ADD MLOAD DUP2 SSTORE ADD SWAP6 ADD SWAP4 ADD PUSH3 0x15C0 JUMP JUMPDEST PUSH3 0x1641 SWAP1 DUP11 DUP1 MSTORE DUP10 DUP12 KECCAK256 DUP10 DUP1 DUP7 ADD PUSH1 0x5 SHR DUP3 ADD SWAP3 DUP13 DUP8 LT PUSH3 0x1587 JUMPI ADD PUSH1 0x5 SHR ADD SWAP1 PUSH3 0x1685 JUMP JUMPDEST CODESIZE PUSH3 0x70 JUMP JUMPDEST SWAP1 PUSH1 0x1 DUP3 DUP2 SHR SWAP3 AND DUP1 ISZERO PUSH3 0x167A JUMPI JUMPDEST PUSH1 0x20 DUP4 LT EQ PUSH3 0x1664 JUMPI JUMP JUMPDEST PUSH4 0x4E487B71 PUSH1 0xE0 SHL PUSH1 0x0 MSTORE PUSH1 0x22 PUSH1 0x4 MSTORE PUSH1 0x24 PUSH1 0x0 REVERT JUMPDEST SWAP2 PUSH1 0x7F AND SWAP2 PUSH3 0x1658 JUMP JUMPDEST DUP2 DUP2 LT PUSH3 0x1691 JUMPI POP POP JUMP JUMPDEST PUSH1 0x0 DUP2 SSTORE PUSH1 0x1 ADD PUSH3 0x1685 JUMP INVALID PUSH1 0x80 PUSH1 0x40 MSTORE PUSH1 0x4 CALLDATASIZE LT ISZERO PUSH2 0x13 JUMPI JUMPDEST PUSH1 0x0 DUP1 REVERT JUMPDEST PUSH1 0x0 CALLDATALOAD PUSH1 0xE0 SHR DUP1 PUSH4 0x1FFC9A7 EQ PUSH2 0x2CF JUMPI DUP1 PUSH4 0x6FDDE03 EQ PUSH2 0x2C6 JUMPI DUP1 PUSH4 0x81812FC EQ PUSH2 0x2BD JUMPI DUP1 PUSH4 0x8B13A1D EQ PUSH2 0x2B4 JUMPI DUP1 PUSH4 0x95EA7B3 EQ PUSH2 0x2AB JUMPI DUP1 PUSH4 0xB912301 EQ PUSH2 0x2A2 JUMPI DUP1 PUSH4 0x11DD8845 EQ PUSH2 0x299 JUMPI DUP1 PUSH4 0x23B872DD EQ PUSH2 0x290 JUMPI DUP1 PUSH4 0x26449235 EQ PUSH2 0x287 JUMPI DUP1 PUSH4 0x2D551432 EQ PUSH2 0x27E JUMPI DUP1 PUSH4 0x3CCFD60B EQ PUSH2 0x275 JUMPI DUP1 PUSH4 0x42842E0E EQ PUSH2 0x26C JUMPI DUP1 PUSH4 0x4622AB03 EQ PUSH2 0x263 JUMPI DUP1 PUSH4 0x541E771D EQ PUSH2 0x25A JUMPI DUP1 PUSH4 0x6352211E EQ PUSH2 0x251 JUMPI DUP1 PUSH4 0x6532B17F EQ PUSH2 0x248 JUMPI DUP1 PUSH4 0x68BD026C EQ PUSH2 0x23F JUMPI DUP1 PUSH4 0x70A08231 EQ PUSH2 0x236 JUMPI DUP1 PUSH4 0x73EEA211 EQ PUSH2 0x22D JUMPI DUP1 PUSH4 0x7618AF72 EQ PUSH2 0x224 JUMPI DUP1 PUSH4 0x79137275 EQ PUSH2 0x21B JUMPI DUP1 PUSH4 0x7DDD5DD8 EQ PUSH2 0x212 JUMPI DUP1 PUSH4 0x8F32D59B EQ PUSH2 0x209 JUMPI DUP1 PUSH4 0x95D89B41 EQ PUSH2 0x200 JUMPI DUP1 PUSH4 0x9791C097 EQ PUSH2 0x1F7 JUMPI DUP1 PUSH4 0xA22CB465 EQ PUSH2 0x1EE JUMPI DUP1 PUSH4 0xABE50FA6 EQ PUSH2 0x1E5 JUMPI DUP1 PUSH4 0xB5140057 EQ PUSH2 0x1DC JUMPI DUP1 PUSH4 0xB88D4FDE EQ PUSH2 0x1D3 JUMPI DUP1 PUSH4 0xBF40FAC1 EQ PUSH2 0x1CA JUMPI DUP1 PUSH4 0xC87B56DD EQ PUSH2 0x1C1 JUMPI DUP1 PUSH4 0xD3CBCFEA EQ PUSH2 0x1B8 JUMPI DUP1 PUSH4 0xE985E9C5 EQ PUSH2 0x1AF JUMPI DUP1 PUSH4 0xFA626F6B EQ PUSH2 0x1A6 JUMPI PUSH4 0xFB825E5F EQ PUSH2 0x19E JUMPI PUSH1 0x0 DUP1 REVERT JUMPDEST PUSH2 0xE PUSH2 0x16CB JUMP JUMPDEST POP PUSH2 0xE PUSH2 0x164C JUMP JUMPDEST POP PUSH2 0xE PUSH2 0x15C8 JUMP JUMPDEST POP PUSH2 0xE PUSH2 0x15AB JUMP JUMPDEST POP PUSH2 0xE PUSH2 0x1515 JUMP JUMPDEST POP PUSH2 0xE PUSH2 0x14E8 JUMP JUMPDEST POP PUSH2 0xE PUSH2 0x1488 JUMP JUMPDEST POP PUSH2 0xE PUSH2 0x146B JUMP JUMPDEST POP PUSH2 0xE PUSH2 0x1408 JUMP JUMPDEST POP PUSH2 0xE PUSH2 0x131F JUMP JUMPDEST POP PUSH2 0xE PUSH2 0x12FB JUMP JUMPDEST POP PUSH2 0xE PUSH2 0x1275 JUMP JUMPDEST POP PUSH2 0xE PUSH2 0x124C JUMP JUMPDEST POP PUSH2 0xE PUSH2 0x122F JUMP JUMPDEST POP PUSH2 0xE PUSH2 0x11ED JUMP JUMPDEST POP PUSH2 0xE PUSH2 0x118F JUMP JUMPDEST POP PUSH2 0xE PUSH2 0x1172 JUMP JUMPDEST POP PUSH2 0xE PUSH2 0x10AB JUMP JUMPDEST POP PUSH2 0xE PUSH2 0xD22 JUMP JUMPDEST POP PUSH2 0xE PUSH2 0xCD9 JUMP JUMPDEST POP PUSH2 0xE PUSH2 0xCBA JUMP JUMPDEST POP PUSH2 0xE PUSH2 0xC09 JUMP JUMPDEST POP PUSH2 0xE PUSH2 0xBDC JUMP JUMPDEST POP PUSH2 0xE PUSH2 0xAD5 JUMP JUMPDEST POP PUSH2 0xE PUSH2 0xA57 JUMP JUMPDEST POP PUSH2 0xE PUSH2 0xA3A JUMP JUMPDEST POP PUSH2 0xE PUSH2 0x9D1 JUMP JUMPDEST POP PUSH2 0xE PUSH2 0x8D2 JUMP JUMPDEST POP PUSH2 0xE PUSH2 0x809 JUMP JUMPDEST POP PUSH2 0xE PUSH2 0x725 JUMP JUMPDEST POP PUSH2 0xE PUSH2 0x62B JUMP JUMPDEST POP PUSH2 0xE PUSH2 0x5CE JUMP JUMPDEST POP PUSH2 0xE PUSH2 0x477 JUMP JUMPDEST POP PUSH2 0xE PUSH2 0x3B5 JUMP JUMPDEST POP PUSH2 0xE PUSH2 0x2EA JUMP JUMPDEST PUSH1 0x1 PUSH1 0x1 PUSH1 0xE0 SHL SUB NOT DUP2 AND SUB PUSH2 0xE JUMPI JUMP JUMPDEST POP CALLVALUE PUSH2 0xE JUMPI PUSH1 0x20 CALLDATASIZE PUSH1 0x3 NOT ADD SLT PUSH2 0xE JUMPI PUSH1 0x20 PUSH1 0x4 CALLDATALOAD PUSH2 0x30A DUP2 PUSH2 0x2D8 JUMP JUMPDEST PUSH4 0xFFFFFFFF PUSH1 0xE0 SHL AND PUSH4 0x80AC58CD PUSH1 0xE0 SHL DUP2 EQ SWAP1 DUP2 ISZERO PUSH2 0x348 JUMPI JUMPDEST DUP2 ISZERO PUSH2 0x337 JUMPI JUMPDEST POP PUSH1 0x40 MLOAD SWAP1 ISZERO ISZERO DUP2 MSTORE RETURN JUMPDEST PUSH4 0x1FFC9A7 PUSH1 0xE0 SHL EQ SWAP1 POP CODESIZE PUSH2 0x32C JUMP JUMPDEST PUSH4 0x5B5E139F PUSH1 0xE0 SHL DUP2 EQ SWAP2 POP PUSH2 0x325 JUMP JUMPDEST PUSH1 0x0 JUMPDEST DUP4 DUP2 LT PUSH2 0x36C JUMPI POP POP PUSH1 0x0 SWAP2 ADD MSTORE JUMP JUMPDEST DUP2 DUP2 ADD MLOAD DUP4 DUP3 ADD MSTORE PUSH1 0x20 ADD PUSH2 0x35C JUMP JUMPDEST SWAP1 PUSH1 0x20 SWAP2 PUSH2 0x395 DUP2 MLOAD DUP1 SWAP3 DUP2 DUP6 MSTORE DUP6 DUP1 DUP7 ADD SWAP2 ADD PUSH2 0x359 JUMP JUMPDEST PUSH1 0x1F ADD PUSH1 0x1F NOT AND ADD ADD SWAP1 JUMP JUMPDEST SWAP1 PUSH1 0x20 PUSH2 0x3B2 SWAP3 DUP2 DUP2 MSTORE ADD SWAP1 PUSH2 0x37C JUMP JUMPDEST SWAP1 JUMP JUMPDEST POP CALLVALUE PUSH2 0xE JUMPI PUSH1 0x0 DUP1 PUSH1 0x3 NOT CALLDATASIZE ADD SLT PUSH2 0x474 JUMPI PUSH1 0x40 MLOAD DUP2 DUP1 SLOAD PUSH2 0x3D7 DUP2 PUSH2 0xAFE JUMP JUMPDEST DUP1 DUP5 MSTORE SWAP1 PUSH1 0x1 SWAP1 DUP2 DUP2 AND SWAP1 DUP2 ISZERO PUSH2 0x44C JUMPI POP PUSH1 0x1 EQ PUSH2 0x411 JUMPI JUMPDEST PUSH2 0x40D DUP5 PUSH2 0x401 DUP2 DUP9 SUB DUP3 PUSH2 0x51D JUMP JUMPDEST PUSH1 0x40 MLOAD SWAP2 DUP3 SWAP2 DUP3 PUSH2 0x3A1 JUMP JUMPDEST SUB SWAP1 RETURN JUMPDEST SWAP4 POP DUP2 DUP1 MSTORE PUSH1 0x20 SWAP4 DUP5 DUP4 KECCAK256 JUMPDEST DUP3 DUP5 LT PUSH2 0x439 JUMPI POP POP POP DUP2 PUSH2 0x40D SWAP4 PUSH2 0x401 SWAP3 DUP3 ADD ADD SWAP4 PUSH2 0x3F1 JUMP JUMPDEST DUP1 SLOAD DUP6 DUP6 ADD DUP8 ADD MSTORE SWAP3 DUP6 ADD SWAP3 DUP2 ADD PUSH2 0x41D JUMP JUMPDEST PUSH2 0x40D SWAP7 POP PUSH2 0x401 SWAP5 POP PUSH1 0x20 SWAP3 POP DUP6 SWAP4 SWAP2 POP PUSH1 0xFF NOT AND DUP3 DUP5 ADD MSTORE ISZERO ISZERO PUSH1 0x5 SHL DUP3 ADD ADD SWAP4 PUSH2 0x3F1 JUMP JUMPDEST DUP1 REVERT JUMPDEST POP CALLVALUE PUSH2 0xE JUMPI PUSH1 0x20 CALLDATASIZE PUSH1 0x3 NOT ADD SLT PUSH2 0xE JUMPI PUSH1 0x20 PUSH2 0x496 PUSH1 0x4 CALLDATALOAD PUSH2 0x1858 JUMP JUMPDEST PUSH1 0x40 MLOAD PUSH1 0x1 PUSH1 0x1 PUSH1 0xA0 SHL SUB SWAP1 SWAP2 AND DUP2 MSTORE RETURN JUMPDEST POP PUSH4 0x4E487B71 PUSH1 0xE0 SHL PUSH1 0x0 MSTORE PUSH1 0x41 PUSH1 0x4 MSTORE PUSH1 0x24 PUSH1 0x0 REVERT JUMPDEST PUSH1 0xA0 DUP2 ADD SWAP1 DUP2 LT PUSH1 0x1 PUSH1 0x1 PUSH1 0x40 SHL SUB DUP3 GT OR PUSH2 0x4DA JUMPI PUSH1 0x40 MSTORE JUMP JUMPDEST PUSH2 0x4E2 PUSH2 0x4A8 JUMP JUMPDEST PUSH1 0x40 MSTORE JUMP JUMPDEST PUSH1 0x40 DUP2 ADD SWAP1 DUP2 LT PUSH1 0x1 PUSH1 0x1 PUSH1 0x40 SHL SUB DUP3 GT OR PUSH2 0x4DA JUMPI PUSH1 0x40 MSTORE JUMP JUMPDEST PUSH1 0x20 DUP2 ADD SWAP1 DUP2 LT PUSH1 0x1 PUSH1 0x1 PUSH1 0x40 SHL SUB DUP3 GT OR PUSH2 0x4DA JUMPI PUSH1 0x40 MSTORE JUMP JUMPDEST SWAP1 PUSH1 0x1F DUP1 NOT SWAP2 ADD AND DUP2 ADD SWAP1 DUP2 LT PUSH1 0x1 PUSH1 0x1 PUSH1 0x40 SHL SUB DUP3 GT OR PUSH2 0x4DA JUMPI PUSH1 0x40 MSTORE JUMP JUMPDEST PUSH1 0x40 MLOAD SWAP1 PUSH2 0x54B DUP3 PUSH2 0x4BF JUMP JUMPDEST JUMP JUMPDEST PUSH1 0x20 SWAP1 PUSH1 0x1 PUSH1 0x1 PUSH1 0x40 SHL SUB DUP2 GT PUSH2 0x56A JUMPI JUMPDEST PUSH1 0x1F ADD PUSH1 0x1F NOT AND ADD SWAP1 JUMP JUMPDEST PUSH2 0x572 PUSH2 0x4A8 JUMP JUMPDEST PUSH2 0x55F JUMP JUMPDEST PUSH1 0x40 MLOAD SWAP1 PUSH1 0x20 DUP3 ADD DUP3 DUP2 LT PUSH1 0x1 PUSH1 0x1 PUSH1 0x40 SHL SUB DUP3 GT OR PUSH2 0x59B JUMPI JUMPDEST PUSH1 0x40 MSTORE PUSH1 0x0 DUP3 MSTORE JUMP JUMPDEST PUSH2 0x5A3 PUSH2 0x4A8 JUMP JUMPDEST PUSH2 0x592 JUMP JUMPDEST PUSH1 0x40 MLOAD SWAP1 PUSH2 0x5B5 DUP3 PUSH2 0x4E7 JUMP JUMPDEST PUSH1 0xA DUP3 MSTORE PUSH10 0x343AB3333632B83AB333 PUSH1 0xB1 SHL PUSH1 0x20 DUP4 ADD MSTORE JUMP JUMPDEST POP CALLVALUE PUSH2 0xE JUMPI PUSH1 0x0 CALLDATASIZE PUSH1 0x3 NOT ADD SLT PUSH2 0xE JUMPI PUSH2 0x40D PUSH2 0x5EB PUSH2 0x5A8 JUMP JUMPDEST PUSH1 0x40 MLOAD SWAP2 DUP3 SWAP2 PUSH1 0x20 DUP4 MSTORE PUSH1 0x20 DUP4 ADD SWAP1 PUSH2 0x37C JUMP JUMPDEST PUSH1 0x4 CALLDATALOAD SWAP1 PUSH1 0x1 PUSH1 0x1 PUSH1 0xA0 SHL SUB DUP3 AND DUP3 SUB PUSH2 0xE JUMPI JUMP JUMPDEST PUSH1 0x24 CALLDATALOAD SWAP1 PUSH1 0x1 PUSH1 0x1 PUSH1 0xA0 SHL SUB DUP3 AND DUP3 SUB PUSH2 0xE JUMPI JUMP JUMPDEST POP CALLVALUE PUSH2 0xE JUMPI PUSH1 0x40 CALLDATASIZE PUSH1 0x3 NOT ADD SLT PUSH2 0xE JUMPI PUSH2 0x645 PUSH2 0x5FF JUMP JUMPDEST PUSH1 0x24 CALLDATALOAD PUSH2 0x651 DUP2 PUSH2 0x17C3 JUMP JUMPDEST SWAP2 PUSH1 0x1 PUSH1 0x1 PUSH1 0xA0 SHL SUB DUP1 DUP5 AND SWAP1 DUP3 AND DUP2 EQ PUSH2 0x6B3 JUMPI PUSH2 0x683 SWAP4 PUSH2 0x67E SWAP2 CALLER EQ SWAP1 DUP2 ISZERO PUSH2 0x685 JUMPI JUMPDEST POP PUSH2 0x17E6 JUMP JUMPDEST PUSH2 0x1C86 JUMP JUMPDEST STOP JUMPDEST PUSH1 0x1 PUSH1 0x1 PUSH1 0xA0 SHL SUB AND PUSH1 0x0 SWAP1 DUP2 MSTORE PUSH1 0x5 PUSH1 0x20 SWAP1 DUP2 MSTORE PUSH1 0x40 DUP1 DUP4 KECCAK256 CALLER DUP5 MSTORE SWAP1 SWAP2 MSTORE SWAP1 KECCAK256 SLOAD PUSH1 0xFF AND SWAP1 POP CODESIZE PUSH2 0x678 JUMP JUMPDEST PUSH1 0x40 MLOAD PUSH3 0x461BCD PUSH1 0xE5 SHL DUP2 MSTORE PUSH1 0x20 PUSH1 0x4 DUP3 ADD MSTORE PUSH1 0x21 PUSH1 0x24 DUP3 ADD MSTORE PUSH32 0x4552433732313A20617070726F76616C20746F2063757272656E74206F776E65 PUSH1 0x44 DUP3 ADD MSTORE PUSH1 0x39 PUSH1 0xF9 SHL PUSH1 0x64 DUP3 ADD MSTORE PUSH1 0x84 SWAP1 REVERT JUMPDEST PUSH1 0x40 MLOAD SWAP1 PUSH2 0x70F DUP3 PUSH2 0x4E7 JUMP JUMPDEST PUSH1 0x7 DUP3 MSTORE PUSH7 0x23384346464233 PUSH1 0xC8 SHL PUSH1 0x20 DUP4 ADD MSTORE JUMP JUMPDEST POP CALLVALUE PUSH2 0xE JUMPI PUSH1 0x0 CALLDATASIZE PUSH1 0x3 NOT ADD SLT PUSH2 0xE JUMPI PUSH2 0x40D PUSH2 0x5EB PUSH2 0x702 JUMP JUMPDEST SWAP2 DUP2 PUSH1 0x1F DUP5 ADD SLT ISZERO PUSH2 0xE JUMPI DUP3 CALLDATALOAD SWAP2 PUSH1 0x1 PUSH1 0x1 PUSH1 0x40 SHL SUB DUP4 GT PUSH2 0xE JUMPI PUSH1 0x20 DUP4 DUP2 DUP7 ADD SWAP6 ADD ADD GT PUSH2 0xE JUMPI JUMP JUMPDEST PUSH1 0x20 PUSH1 0x3 NOT DUP3 ADD SLT PUSH2 0xE JUMPI PUSH1 0x4 CALLDATALOAD SWAP1 PUSH1 0x1 PUSH1 0x1 PUSH1 0x40 SHL SUB DUP3 GT PUSH2 0xE JUMPI PUSH2 0x799 SWAP2 PUSH1 0x4 ADD PUSH2 0x742 JUMP JUMPDEST SWAP1 SWAP2 JUMP JUMPDEST PUSH1 0x20 DUP2 MSTORE PUSH1 0xA0 PUSH2 0x7F6 PUSH2 0x7BB DUP5 MLOAD DUP4 PUSH1 0x20 DUP7 ADD MSTORE PUSH1 0xC0 DUP6 ADD SWAP1 PUSH2 0x37C JUMP JUMPDEST PUSH1 0x20 DUP6 ADD MLOAD PUSH1 0x40 DUP6 ADD MSTORE PUSH2 0x7E1 PUSH1 0x40 DUP7 ADD MLOAD SWAP2 PUSH1 0x1F NOT SWAP3 DUP4 DUP8 DUP4 SUB ADD PUSH1 0x60 DUP9 ADD MSTORE PUSH2 0x37C JUMP JUMPDEST SWAP1 PUSH1 0x60 DUP7 ADD MLOAD SWAP1 DUP6 DUP4 SUB ADD PUSH1 0x80 DUP7 ADD MSTORE PUSH2 0x37C JUMP JUMPDEST SWAP3 PUSH1 0x80 PUSH1 0x1 DUP1 DUP5 SHL SUB SWAP2 ADD MLOAD AND SWAP2 ADD MSTORE SWAP1 JUMP JUMPDEST POP CALLVALUE PUSH2 0xE JUMPI PUSH2 0x40D PUSH1 0x20 PUSH2 0x81D CALLDATASIZE PUSH2 0x76F JUMP JUMPDEST SWAP2 SWAP1 PUSH2 0x827 PUSH2 0x2913 JUMP JUMPDEST POP DUP3 PUSH1 0x40 MLOAD SWAP4 DUP5 SWAP3 DUP4 CALLDATACOPY DUP2 ADD PUSH1 0xF DUP2 MSTORE SUB ADD SWAP1 KECCAK256 PUSH1 0x40 MLOAD SWAP1 PUSH2 0x848 DUP3 PUSH2 0x4BF JUMP JUMPDEST PUSH2 0x851 DUP2 PUSH2 0xB38 JUMP JUMPDEST DUP3 MSTORE PUSH1 0x1 DUP2 ADD SLOAD PUSH1 0x20 DUP4 ADD MSTORE PUSH2 0x869 PUSH1 0x2 DUP3 ADD PUSH2 0xB38 JUMP JUMPDEST PUSH1 0x40 DUP4 ADD MSTORE PUSH2 0x87A PUSH1 0x3 DUP3 ADD PUSH2 0xB38 JUMP JUMPDEST PUSH1 0x60 DUP4 ADD MSTORE PUSH1 0x4 ADD SLOAD PUSH1 0x1 PUSH1 0x1 PUSH1 0xA0 SHL SUB AND PUSH1 0x80 DUP3 ADD MSTORE PUSH1 0x40 MLOAD SWAP2 DUP3 SWAP2 DUP3 PUSH2 0x79D JUMP JUMPDEST PUSH1 0x60 SWAP1 PUSH1 0x3 NOT ADD SLT PUSH2 0xE JUMPI PUSH1 0x1 PUSH1 0x1 PUSH1 0xA0 SHL SUB SWAP1 PUSH1 0x4 CALLDATALOAD DUP3 DUP2 AND DUP2 SUB PUSH2 0xE JUMPI SWAP2 PUSH1 0x24 CALLDATALOAD SWAP1 DUP2 AND DUP2 SUB PUSH2 0xE JUMPI SWAP1 PUSH1 0x44 CALLDATALOAD SWAP1 JUMP JUMPDEST POP CALLVALUE PUSH2 0xE JUMPI PUSH2 0x683 PUSH2 0x8E4 CALLDATASIZE PUSH2 0x89D JUMP JUMPDEST SWAP2 PUSH2 0x8F7 PUSH2 0x8F2 DUP5 CALLER PUSH2 0x199C JUMP JUMPDEST PUSH2 0x1896 JUMP JUMPDEST PUSH2 0x1AFC JUMP JUMPDEST SWAP3 SWAP2 SWAP3 PUSH2 0x908 DUP3 PUSH2 0x54D JUMP JUMPDEST SWAP2 PUSH2 0x916 PUSH1 0x40 MLOAD SWAP4 DUP5 PUSH2 0x51D JUMP JUMPDEST DUP3 SWAP5 DUP2 DUP5 MSTORE DUP2 DUP4 ADD GT PUSH2 0xE JUMPI DUP3 DUP2 PUSH1 0x20 SWAP4 DUP5 PUSH1 0x0 SWAP7 ADD CALLDATACOPY ADD ADD MSTORE JUMP JUMPDEST PUSH1 0x20 PUSH1 0x3 NOT DUP3 ADD SLT PUSH2 0xE JUMPI PUSH1 0x4 CALLDATALOAD SWAP1 PUSH1 0x1 PUSH1 0x1 PUSH1 0x40 SHL SUB DUP3 GT PUSH2 0xE JUMPI DUP1 PUSH1 0x23 DUP4 ADD SLT ISZERO PUSH2 0xE JUMPI DUP2 PUSH1 0x24 PUSH2 0x3B2 SWAP4 PUSH1 0x4 ADD CALLDATALOAD SWAP2 ADD PUSH2 0x8FC JUMP JUMPDEST SWAP1 PUSH2 0x981 PUSH1 0x20 SWAP3 DUP3 DUP2 MLOAD SWAP5 DUP6 SWAP3 ADD PUSH2 0x359 JUMP JUMPDEST ADD SWAP1 JUMP JUMPDEST PUSH1 0x20 PUSH2 0x99E SWAP2 DUP2 PUSH1 0x40 MLOAD SWAP4 DUP3 DUP6 DUP1 SWAP5 MLOAD SWAP4 DUP5 SWAP3 ADD PUSH2 0x359 JUMP JUMPDEST DUP2 ADD PUSH1 0xF DUP2 MSTORE SUB ADD SWAP1 KECCAK256 SWAP1 JUMP JUMPDEST PUSH1 0x20 PUSH2 0x9C4 SWAP2 DUP2 PUSH1 0x40 MLOAD SWAP4 DUP3 DUP6 DUP1 SWAP5 MLOAD SWAP4 DUP5 SWAP3 ADD PUSH2 0x359 JUMP JUMPDEST DUP2 ADD PUSH1 0xD DUP2 MSTORE SUB ADD SWAP1 KECCAK256 SWAP1 JUMP JUMPDEST POP CALLVALUE PUSH2 0xE JUMPI PUSH1 0x20 PUSH2 0x9E2 CALLDATASIZE PUSH2 0x933 JUMP JUMPDEST DUP2 PUSH2 0x9F6 PUSH1 0x40 MLOAD SWAP3 DUP4 DUP2 MLOAD SWAP4 DUP5 SWAP3 ADD PUSH2 0x359 JUMP JUMPDEST PUSH1 0xD SWAP1 DUP3 ADD SWAP1 DUP2 MSTORE DUP2 SWAP1 SUB DUP3 ADD SWAP1 KECCAK256 SLOAD PUSH1 0x40 MLOAD PUSH1 0x1 PUSH1 0x1 PUSH1 0xA0 SHL SUB SWAP1 SWAP2 AND DUP2 MSTORE RETURN JUMPDEST PUSH1 0x40 MLOAD SWAP1 PUSH2 0xA25 DUP3 PUSH2 0x4E7 JUMP JUMPDEST PUSH1 0x6 DUP3 MSTORE PUSH6 0x686777727473 PUSH1 0xD0 SHL PUSH1 0x20 DUP4 ADD MSTORE JUMP JUMPDEST POP CALLVALUE PUSH2 0xE JUMPI PUSH1 0x0 CALLDATASIZE PUSH1 0x3 NOT ADD SLT PUSH2 0xE JUMPI PUSH2 0x40D PUSH2 0x5EB PUSH2 0xA18 JUMP JUMPDEST POP CALLVALUE PUSH2 0xE JUMPI PUSH1 0x0 DUP1 PUSH1 0x3 NOT CALLDATASIZE ADD SLT PUSH2 0x474 JUMPI PUSH1 0xC SLOAD PUSH1 0x1 PUSH1 0x1 PUSH1 0xA0 SHL SUB AND CALLER SUB PUSH2 0x474 JUMPI DUP1 DUP1 DUP1 DUP1 SELFBALANCE CALLER GAS CALL PUSH2 0xA8C PUSH2 0x1D5B JUMP JUMPDEST POP ISZERO PUSH2 0xA95 JUMPI DUP1 RETURN JUMPDEST PUSH1 0x40 MLOAD PUSH3 0x461BCD PUSH1 0xE5 SHL DUP2 MSTORE PUSH1 0x20 PUSH1 0x4 DUP3 ADD MSTORE PUSH1 0x18 PUSH1 0x24 DUP3 ADD MSTORE PUSH24 0x4661696C656420746F207769746864726177204D61746963 PUSH1 0x40 SHL PUSH1 0x44 DUP3 ADD MSTORE PUSH1 0x64 SWAP1 REVERT JUMPDEST POP CALLVALUE PUSH2 0xE JUMPI PUSH2 0x683 PUSH2 0xAE7 CALLDATASIZE PUSH2 0x89D JUMP JUMPDEST SWAP1 PUSH1 0x40 MLOAD SWAP3 PUSH2 0xAF5 DUP5 PUSH2 0x502 JUMP JUMPDEST PUSH1 0x0 DUP5 MSTORE PUSH2 0x18F9 JUMP JUMPDEST SWAP1 PUSH1 0x1 DUP3 DUP2 SHR SWAP3 AND DUP1 ISZERO PUSH2 0xB2E JUMPI JUMPDEST PUSH1 0x20 DUP4 LT EQ PUSH2 0xB18 JUMPI JUMP JUMPDEST PUSH4 0x4E487B71 PUSH1 0xE0 SHL PUSH1 0x0 MSTORE PUSH1 0x22 PUSH1 0x4 MSTORE PUSH1 0x24 PUSH1 0x0 REVERT JUMPDEST SWAP2 PUSH1 0x7F AND SWAP2 PUSH2 0xB0D JUMP JUMPDEST SWAP1 PUSH1 0x40 MLOAD SWAP2 DUP3 PUSH1 0x0 DUP3 SLOAD SWAP3 PUSH2 0xB4C DUP5 PUSH2 0xAFE JUMP JUMPDEST SWAP1 DUP2 DUP5 MSTORE PUSH1 0x1 SWAP5 DUP6 DUP2 AND SWAP1 DUP2 PUSH1 0x0 EQ PUSH2 0xBB9 JUMPI POP PUSH1 0x1 EQ PUSH2 0xB76 JUMPI JUMPDEST POP POP PUSH2 0x54B SWAP3 POP SUB DUP4 PUSH2 0x51D JUMP JUMPDEST SWAP1 SWAP4 SWAP2 POP PUSH1 0x0 MSTORE PUSH1 0x20 SWAP1 DUP2 PUSH1 0x0 KECCAK256 SWAP4 PUSH1 0x0 SWAP2 JUMPDEST DUP2 DUP4 LT PUSH2 0xBA1 JUMPI POP POP PUSH2 0x54B SWAP4 POP DUP3 ADD ADD CODESIZE DUP1 PUSH2 0xB68 JUMP JUMPDEST DUP6 SLOAD DUP9 DUP5 ADD DUP6 ADD MSTORE SWAP5 DUP6 ADD SWAP5 DUP8 SWAP5 POP SWAP2 DUP4 ADD SWAP2 PUSH2 0xB89 JUMP JUMPDEST SWAP2 POP POP PUSH2 0x54B SWAP5 POP PUSH1 0x20 SWAP3 POP PUSH1 0xFF NOT AND DUP3 DUP5 ADD MSTORE ISZERO ISZERO PUSH1 0x5 SHL DUP3 ADD ADD CODESIZE DUP1 PUSH2 0xB68 JUMP JUMPDEST POP CALLVALUE PUSH2 0xE JUMPI PUSH1 0x20 CALLDATASIZE PUSH1 0x3 NOT ADD SLT PUSH2 0xE JUMPI PUSH1 0x4 CALLDATALOAD PUSH1 0x0 MSTORE PUSH1 0x11 PUSH1 0x20 MSTORE PUSH2 0x40D PUSH2 0x5EB PUSH1 0x40 PUSH1 0x0 KECCAK256 PUSH2 0xB38 JUMP JUMPDEST POP CALLVALUE PUSH2 0xE JUMPI PUSH2 0xC8F PUSH2 0xC33 PUSH1 0x20 PUSH2 0xC20 CALLDATASIZE PUSH2 0x933 JUMP JUMPDEST DUP2 PUSH1 0x40 MLOAD SWAP4 DUP3 DUP6 DUP1 SWAP5 MLOAD SWAP4 DUP5 SWAP3 ADD PUSH2 0x359 JUMP JUMPDEST DUP2 ADD PUSH1 0xF DUP2 MSTORE SUB ADD SWAP1 KECCAK256 PUSH2 0xC46 DUP2 PUSH2 0xB38 JUMP JUMPDEST SWAP1 PUSH2 0xCB0 PUSH1 0x1 DUP3 ADD SLOAD SWAP2 PUSH2 0xCA2 PUSH2 0xC5F PUSH1 0x2 DUP4 ADD PUSH2 0xB38 JUMP JUMPDEST SWAP4 PUSH2 0xC6C PUSH1 0x3 DUP5 ADD PUSH2 0xB38 JUMP JUMPDEST SWAP3 PUSH1 0x4 PUSH1 0x1 DUP1 PUSH1 0xA0 SHL SUB SWAP2 ADD SLOAD AND SWAP5 PUSH1 0x40 MLOAD SWAP8 DUP9 SWAP8 PUSH1 0xA0 DUP10 MSTORE PUSH1 0xA0 DUP10 ADD SWAP1 PUSH2 0x37C JUMP JUMPDEST SWAP2 PUSH1 0x20 DUP9 ADD MSTORE DUP7 DUP3 SUB PUSH1 0x40 DUP9 ADD MSTORE PUSH2 0x37C JUMP JUMPDEST SWAP1 DUP5 DUP3 SUB PUSH1 0x60 DUP7 ADD MSTORE PUSH2 0x37C JUMP JUMPDEST SWAP1 PUSH1 0x80 DUP4 ADD MSTORE SUB SWAP1 RETURN JUMPDEST POP CALLVALUE PUSH2 0xE JUMPI PUSH1 0x20 CALLDATASIZE PUSH1 0x3 NOT ADD SLT PUSH2 0xE JUMPI PUSH1 0x20 PUSH2 0x496 PUSH1 0x4 CALLDATALOAD PUSH2 0x17C3 JUMP JUMPDEST POP CALLVALUE PUSH2 0xE JUMPI PUSH1 0x0 CALLDATASIZE PUSH1 0x3 NOT ADD SLT PUSH2 0xE JUMPI PUSH2 0xCF3 PUSH2 0x2913 JUMP JUMPDEST POP CALLER PUSH1 0x0 MSTORE PUSH1 0xE PUSH1 0x20 MSTORE PUSH2 0x40D PUSH2 0xD15 PUSH2 0xD10 PUSH1 0x40 PUSH1 0x0 KECCAK256 PUSH2 0xB38 JUMP JUMPDEST PUSH2 0x985 JUMP JUMPDEST PUSH1 0x40 MLOAD SWAP1 PUSH2 0x848 DUP3 PUSH2 0x4BF JUMP JUMPDEST POP PUSH1 0x60 CALLDATASIZE PUSH1 0x3 NOT ADD SLT PUSH2 0xE JUMPI PUSH1 0x1 PUSH1 0x1 PUSH1 0x40 SHL SUB PUSH1 0x4 CALLDATALOAD DUP2 DUP2 GT PUSH2 0xE JUMPI PUSH2 0xD4F SWAP1 CALLDATASIZE SWAP1 PUSH1 0x4 ADD PUSH2 0x742 JUMP JUMPDEST SWAP2 PUSH1 0x24 CALLDATALOAD SWAP1 DUP2 GT PUSH2 0xE JUMPI PUSH2 0xD68 SWAP1 CALLDATASIZE SWAP1 PUSH1 0x4 ADD PUSH2 0x742 JUMP JUMPDEST PUSH1 0x1 PUSH1 0x1 PUSH1 0xA0 SHL SUB PUSH2 0xD7A DUP6 DUP6 PUSH2 0x1FF8 JUMP JUMPDEST SLOAD PUSH1 0x1 PUSH1 0x1 PUSH1 0xA0 SHL SUB AND AND ISZERO PUSH2 0xD8F SWAP1 PUSH2 0x2011 JUMP JUMPDEST PUSH2 0xD99 DUP5 DUP5 PUSH2 0x1FB0 JUMP JUMPDEST PUSH2 0xDA2 SWAP1 PUSH2 0x2053 JUMP JUMPDEST CALLER PUSH1 0x0 SWAP1 DUP2 MSTORE PUSH1 0x10 PUSH1 0x20 MSTORE PUSH1 0x40 SWAP1 KECCAK256 SLOAD PUSH1 0xFF AND ISZERO PUSH2 0xDBF SWAP1 PUSH2 0x208E JUMP JUMPDEST PUSH1 0xB SLOAD CALLVALUE LT ISZERO PUSH2 0xDCE SWAP1 PUSH2 0x20D4 JUMP JUMPDEST PUSH2 0xDD9 PUSH1 0x44 CALLDATALOAD PUSH2 0x2630 JUMP JUMPDEST PUSH2 0xDE2 SWAP1 PUSH2 0x2666 JUMP JUMPDEST SWAP2 DUP2 SWAP4 PUSH2 0xDED PUSH2 0xA18 JUMP JUMPDEST PUSH1 0x40 MLOAD SWAP5 DUP6 DUP1 SWAP3 PUSH1 0x20 DUP3 ADD PUSH2 0xE03 SWAP1 DUP13 DUP13 PUSH2 0x1FEA JUMP JUMPDEST PUSH1 0x17 PUSH1 0xF9 SHL DUP2 MSTORE PUSH1 0x1 ADD PUSH2 0xE17 SWAP1 DUP9 PUSH2 0x96E JUMP JUMPDEST PUSH1 0x17 PUSH1 0xF9 SHL DUP2 MSTORE PUSH1 0x1 ADD PUSH2 0xE2A SWAP2 PUSH2 0x96E JUMP JUMPDEST SUB SWAP1 PUSH1 0x1F NOT SWAP2 DUP3 DUP2 ADD DUP5 MSTORE PUSH2 0xE3F SWAP1 DUP5 PUSH2 0x51D JUMP JUMPDEST PUSH1 0x40 MLOAD DUP1 SWAP2 PUSH1 0x20 DUP3 ADD PUSH2 0xE51 SWAP1 PUSH2 0x2118 JUMP JUMPDEST PUSH2 0xE5A SWAP2 PUSH2 0x96E JUMP JUMPDEST PUSH2 0xE63 SWAP1 PUSH2 0x218C JUMP JUMPDEST PUSH2 0xE6D SWAP1 DUP6 PUSH2 0x96E JUMP JUMPDEST PUSH2 0xE76 SWAP1 PUSH2 0x21ED JUMP JUMPDEST SUB DUP3 DUP2 ADD DUP3 MSTORE PUSH2 0xE86 SWAP1 DUP3 PUSH2 0x51D JUMP JUMPDEST PUSH2 0xE91 CALLDATASIZE DUP12 DUP12 PUSH2 0x8FC JUMP JUMPDEST PUSH2 0xE9A SWAP1 PUSH2 0x2B1A JUMP JUMPDEST PUSH2 0xEA3 SWAP1 PUSH2 0x1F08 JUMP JUMPDEST SWAP1 PUSH2 0xEAD SWAP1 PUSH2 0x2A1D JUMP JUMPDEST PUSH1 0x40 MLOAD PUSH10 0x3D913730B6B2911D1011 PUSH1 0xB1 SHL PUSH1 0x20 DUP3 ADD MSTORE SWAP2 DUP3 SWAP2 PUSH2 0xED3 PUSH1 0x2A DUP5 ADD DUP8 PUSH2 0x96E JUMP JUMPDEST PUSH32 0x222C20226465736372697074696F6E223A2022412073747564656E7420617420 DUP2 MSTORE PUSH32 0x486F677761727473222C2022696D616765223A2022646174613A696D6167652F PUSH1 0x20 DUP3 ADD MSTORE PUSH15 0x1CDD99CADE1B5B0ED8985CD94D8D0B PUSH1 0x8A SHL PUSH1 0x40 DUP3 ADD MSTORE PUSH1 0x4F ADD PUSH2 0xF40 SWAP2 PUSH2 0x96E JUMP JUMPDEST PUSH12 0x1116113632B733BA34111D11 PUSH1 0xA1 SHL DUP2 MSTORE PUSH1 0xC ADD PUSH2 0xF5E SWAP2 PUSH2 0x96E JUMP JUMPDEST PUSH2 0x227D PUSH1 0xF0 SHL DUP2 MSTORE PUSH1 0x2 ADD SUB DUP3 DUP2 ADD DUP3 MSTORE PUSH2 0xF79 SWAP1 DUP3 PUSH2 0x51D JUMP JUMPDEST PUSH2 0xF82 SWAP1 PUSH2 0x2A1D JUMP JUMPDEST PUSH1 0x40 MLOAD PUSH32 0x646174613A6170706C69636174696F6E2F6A736F6E3B6261736536342C000000 PUSH1 0x20 DUP3 ADD MSTORE SWAP2 SWAP1 DUP3 SWAP1 PUSH1 0x3D DUP3 ADD PUSH2 0xFBC SWAP2 PUSH2 0x96E JUMP JUMPDEST SUB SWAP1 DUP2 ADD DUP3 MSTORE PUSH2 0xFCC SWAP1 DUP3 PUSH2 0x51D JUMP JUMPDEST PUSH1 0x7 SLOAD SWAP1 PUSH2 0xFDA DUP3 CALLER PUSH2 0x23B8 JUMP JUMPDEST PUSH2 0xFE4 SWAP1 DUP3 PUSH2 0x24F3 JUMP JUMPDEST CALLER PUSH2 0xFEE DUP4 PUSH2 0x9AB JUMP JUMPDEST DUP1 SLOAD PUSH1 0x1 PUSH1 0x1 PUSH1 0xA0 SHL SUB NOT AND PUSH1 0x1 PUSH1 0x1 PUSH1 0xA0 SHL SUB SWAP1 SWAP3 AND SWAP2 SWAP1 SWAP2 OR SWAP1 SSTORE CALLER PUSH1 0x0 SWAP1 DUP2 MSTORE PUSH1 0xE PUSH1 0x20 MSTORE PUSH1 0x40 SWAP1 KECCAK256 DUP3 PUSH2 0x1024 SWAP2 PUSH2 0x22A2 JUMP JUMPDEST CALLER PUSH1 0x0 SWAP1 DUP2 MSTORE PUSH1 0x10 PUSH1 0x20 MSTORE PUSH1 0x40 SWAP1 KECCAK256 DUP1 SLOAD PUSH1 0xFF NOT AND PUSH1 0x1 OR SWAP1 SSTORE PUSH2 0x1052 SWAP1 PUSH1 0x0 MSTORE PUSH1 0x11 PUSH1 0x20 MSTORE PUSH1 0x40 PUSH1 0x0 KECCAK256 SWAP1 JUMP JUMPDEST SWAP1 PUSH2 0x105C SWAP2 PUSH2 0x22A2 JUMP JUMPDEST PUSH2 0x1065 SWAP4 PUSH2 0x2869 JUMP JUMPDEST PUSH2 0x1073 PUSH1 0x1 PUSH1 0x7 SLOAD ADD PUSH1 0x7 SSTORE JUMP JUMPDEST PUSH1 0x40 MLOAD SWAP2 DUP3 SWAP2 CALLER SWAP5 PUSH2 0x1085 SWAP3 DUP5 PUSH2 0x237E JUMP JUMPDEST SUB PUSH32 0x78FC4BD5049206A33E22E356BA7AE0CFF1F598EEF8B69790FDE01DE4562A95DA SWAP2 LOG2 STOP JUMPDEST POP CALLVALUE PUSH2 0xE JUMPI PUSH1 0x20 CALLDATASIZE PUSH1 0x3 NOT ADD SLT PUSH2 0xE JUMPI PUSH1 0x1 PUSH1 0x1 PUSH1 0xA0 SHL SUB PUSH2 0x10CD PUSH2 0x5FF JUMP JUMPDEST AND DUP1 ISZERO PUSH2 0x10F6 JUMPI PUSH1 0x0 MSTORE PUSH1 0x3 PUSH1 0x20 MSTORE PUSH2 0x40D PUSH1 0x40 PUSH1 0x0 KECCAK256 SLOAD PUSH1 0x40 MLOAD SWAP2 DUP3 SWAP2 DUP3 SWAP2 SWAP1 PUSH1 0x20 DUP4 ADD SWAP3 MSTORE JUMP JUMPDEST PUSH1 0x40 MLOAD PUSH3 0x461BCD PUSH1 0xE5 SHL DUP2 MSTORE PUSH1 0x20 PUSH1 0x4 DUP3 ADD MSTORE PUSH1 0x29 PUSH1 0x24 DUP3 ADD MSTORE PUSH32 0x4552433732313A2061646472657373207A65726F206973206E6F742061207661 PUSH1 0x44 DUP3 ADD MSTORE PUSH9 0x3634B21037BBB732B9 PUSH1 0xB9 SHL PUSH1 0x64 DUP3 ADD MSTORE PUSH1 0x84 SWAP1 REVERT JUMPDEST PUSH1 0x40 MLOAD SWAP1 PUSH2 0x115A DUP3 PUSH2 0x4E7 JUMP JUMPDEST PUSH1 0x9 DUP3 MSTORE PUSH9 0x39B63CBA3432B934B7 PUSH1 0xB9 SHL PUSH1 0x20 DUP4 ADD MSTORE JUMP JUMPDEST POP CALLVALUE PUSH2 0xE JUMPI PUSH1 0x0 CALLDATASIZE PUSH1 0x3 NOT ADD SLT PUSH2 0xE JUMPI PUSH2 0x40D PUSH2 0x5EB PUSH2 0x114D JUMP JUMPDEST POP CALLVALUE PUSH2 0xE JUMPI PUSH1 0x20 CALLDATASIZE PUSH1 0x3 NOT ADD SLT PUSH2 0xE JUMPI PUSH1 0x1 PUSH1 0x1 PUSH1 0xA0 SHL SUB PUSH2 0x11B1 PUSH2 0x5FF JUMP JUMPDEST AND PUSH1 0x0 MSTORE PUSH1 0xE PUSH1 0x20 MSTORE PUSH2 0x40D PUSH2 0x5EB PUSH1 0x40 PUSH1 0x0 KECCAK256 PUSH2 0xB38 JUMP JUMPDEST PUSH1 0x40 MLOAD SWAP1 PUSH2 0x11D7 DUP3 PUSH2 0x4E7 JUMP JUMPDEST PUSH1 0x7 DUP3 MSTORE PUSH7 0x23464638433843 PUSH1 0xC8 SHL PUSH1 0x20 DUP4 ADD MSTORE JUMP JUMPDEST POP CALLVALUE PUSH2 0xE JUMPI PUSH1 0x0 CALLDATASIZE PUSH1 0x3 NOT ADD SLT PUSH2 0xE JUMPI PUSH2 0x40D PUSH2 0x5EB PUSH2 0x11CA JUMP JUMPDEST PUSH1 0x40 MLOAD SWAP1 PUSH2 0x1217 DUP3 PUSH2 0x4E7 JUMP JUMPDEST PUSH1 0x9 DUP3 MSTORE PUSH9 0x726176656E636C6177 PUSH1 0xB8 SHL PUSH1 0x20 DUP4 ADD MSTORE JUMP JUMPDEST POP CALLVALUE PUSH2 0xE JUMPI PUSH1 0x0 CALLDATASIZE PUSH1 0x3 NOT ADD SLT PUSH2 0xE JUMPI PUSH2 0x40D PUSH2 0x5EB PUSH2 0x120A JUMP JUMPDEST POP CALLVALUE PUSH2 0xE JUMPI PUSH1 0x0 CALLDATASIZE PUSH1 0x3 NOT ADD SLT PUSH2 0xE JUMPI PUSH1 0x20 PUSH1 0x1 DUP1 PUSH1 0xA0 SHL SUB PUSH1 0xC SLOAD AND CALLER EQ PUSH1 0x40 MLOAD SWAP1 DUP2 MSTORE RETURN JUMPDEST POP CALLVALUE PUSH2 0xE JUMPI PUSH1 0x0 DUP1 PUSH1 0x3 NOT CALLDATASIZE ADD SLT PUSH2 0x474 JUMPI PUSH1 0x40 MLOAD DUP2 PUSH1 0x1 DUP1 SLOAD SWAP1 PUSH2 0x129A DUP3 PUSH2 0xAFE JUMP JUMPDEST DUP1 DUP6 MSTORE SWAP2 DUP2 DUP2 AND SWAP1 DUP2 ISZERO PUSH2 0x44C JUMPI POP PUSH1 0x1 EQ PUSH2 0x12C0 JUMPI PUSH2 0x40D DUP5 PUSH2 0x401 DUP2 DUP9 SUB DUP3 PUSH2 0x51D JUMP JUMPDEST DUP1 SWAP5 POP DUP3 MSTORE PUSH1 0x20 SWAP4 DUP5 DUP4 KECCAK256 JUMPDEST DUP3 DUP5 LT PUSH2 0x12E8 JUMPI POP POP POP DUP2 PUSH2 0x40D SWAP4 PUSH2 0x401 SWAP3 DUP3 ADD ADD SWAP4 PUSH2 0x3F1 JUMP JUMPDEST DUP1 SLOAD DUP6 DUP6 ADD DUP8 ADD MSTORE SWAP3 DUP6 ADD SWAP3 DUP2 ADD PUSH2 0x12CC JUMP JUMPDEST POP CALLVALUE PUSH2 0xE JUMPI PUSH1 0x20 PUSH2 0x1315 PUSH2 0x130F CALLDATASIZE PUSH2 0x76F JUMP JUMPDEST SWAP1 PUSH2 0x1FB0 JUMP JUMPDEST PUSH1 0x40 MLOAD SWAP1 ISZERO ISZERO DUP2 MSTORE RETURN JUMPDEST POP CALLVALUE PUSH2 0xE JUMPI PUSH1 0x40 CALLDATASIZE PUSH1 0x3 NOT ADD SLT PUSH2 0xE JUMPI PUSH2 0x1339 PUSH2 0x5FF JUMP JUMPDEST PUSH1 0x24 CALLDATALOAD DUP1 ISZERO ISZERO DUP2 SUB PUSH2 0xE JUMPI PUSH1 0x1 PUSH1 0x1 PUSH1 0xA0 SHL SUB DUP3 AND SWAP2 CALLER DUP4 EQ PUSH2 0x13C7 JUMPI DUP2 PUSH2 0x1384 PUSH2 0x1395 SWAP3 CALLER PUSH1 0x0 MSTORE PUSH1 0x5 PUSH1 0x20 MSTORE PUSH1 0x40 PUSH1 0x0 KECCAK256 SWAP1 PUSH1 0x1 DUP1 PUSH1 0xA0 SHL SUB AND PUSH1 0x0 MSTORE PUSH1 0x20 MSTORE PUSH1 0x40 PUSH1 0x0 KECCAK256 SWAP1 JUMP JUMPDEST SWAP1 PUSH1 0xFF DUP1 NOT DUP4 SLOAD AND SWAP2 ISZERO ISZERO AND OR SWAP1 SSTORE JUMP JUMPDEST PUSH1 0x40 MLOAD SWAP1 ISZERO ISZERO DUP2 MSTORE CALLER SWAP1 PUSH32 0x17307EAB39AB6107E8899845AD3D59BD9653F200F220920489CA2B5937696C31 SWAP1 PUSH1 0x20 SWAP1 LOG3 STOP JUMPDEST PUSH1 0x40 MLOAD PUSH3 0x461BCD PUSH1 0xE5 SHL DUP2 MSTORE PUSH1 0x20 PUSH1 0x4 DUP3 ADD MSTORE PUSH1 0x19 PUSH1 0x24 DUP3 ADD MSTORE PUSH25 0x22A9219B99189D1030B8383937BB32903A379031B0B63632B9 PUSH1 0x39 SHL PUSH1 0x44 DUP3 ADD MSTORE PUSH1 0x64 SWAP1 REVERT JUMPDEST POP CALLVALUE PUSH2 0xE JUMPI PUSH1 0x20 CALLDATASIZE PUSH1 0x3 NOT ADD SLT PUSH2 0xE JUMPI PUSH1 0x1 PUSH1 0x1 PUSH1 0xA0 SHL SUB PUSH2 0x142A PUSH2 0x5FF JUMP JUMPDEST AND PUSH1 0x0 MSTORE PUSH1 0x10 PUSH1 0x20 MSTORE PUSH1 0x20 PUSH1 0xFF PUSH1 0x40 PUSH1 0x0 KECCAK256 SLOAD AND PUSH1 0x40 MLOAD SWAP1 ISZERO ISZERO DUP2 MSTORE RETURN JUMPDEST PUSH1 0x40 MLOAD SWAP1 PUSH2 0x1455 DUP3 PUSH2 0x4E7 JUMP JUMPDEST PUSH1 0x7 DUP3 MSTORE PUSH7 0x23464446463843 PUSH1 0xC8 SHL PUSH1 0x20 DUP4 ADD MSTORE JUMP JUMPDEST POP CALLVALUE PUSH2 0xE JUMPI PUSH1 0x0 CALLDATASIZE PUSH1 0x3 NOT ADD SLT PUSH2 0xE JUMPI PUSH2 0x40D PUSH2 0x5EB PUSH2 0x1448 JUMP JUMPDEST POP CALLVALUE PUSH2 0xE JUMPI PUSH1 0x80 CALLDATASIZE PUSH1 0x3 NOT ADD SLT PUSH2 0xE JUMPI PUSH2 0x14A2 PUSH2 0x5FF JUMP JUMPDEST PUSH2 0x14AA PUSH2 0x615 JUMP JUMPDEST PUSH1 0x64 CALLDATALOAD SWAP2 PUSH1 0x1 PUSH1 0x1 PUSH1 0x40 SHL SUB DUP4 GT PUSH2 0xE JUMPI CALLDATASIZE PUSH1 0x23 DUP5 ADD SLT ISZERO PUSH2 0xE JUMPI PUSH2 0x14DE PUSH2 0x683 SWAP4 CALLDATASIZE SWAP1 PUSH1 0x24 DUP2 PUSH1 0x4 ADD CALLDATALOAD SWAP2 ADD PUSH2 0x8FC JUMP JUMPDEST SWAP2 PUSH1 0x44 CALLDATALOAD SWAP2 PUSH2 0x18F9 JUMP JUMPDEST POP CALLVALUE PUSH2 0xE JUMPI PUSH1 0x20 PUSH2 0x150B PUSH2 0x14FC CALLDATASIZE PUSH2 0x76F JUMP JUMPDEST PUSH1 0x1 PUSH1 0x1 PUSH1 0xA0 SHL SUB SWAP3 SWAP2 PUSH2 0x1FF8 JUMP JUMPDEST SLOAD AND PUSH1 0x40 MLOAD SWAP1 DUP2 MSTORE RETURN JUMPDEST POP CALLVALUE PUSH2 0xE JUMPI PUSH1 0x20 CALLDATASIZE PUSH1 0x3 NOT ADD SLT PUSH2 0xE JUMPI PUSH1 0x4 CALLDATALOAD PUSH1 0x0 DUP2 DUP2 MSTORE PUSH1 0x2 PUSH1 0x20 MSTORE PUSH1 0x40 SWAP1 KECCAK256 SLOAD PUSH2 0x154D SWAP1 PUSH1 0x1 PUSH1 0x1 PUSH1 0xA0 SHL SUB AND ISZERO ISZERO PUSH2 0x177C JUMP JUMPDEST PUSH1 0x0 MSTORE PUSH1 0x6 PUSH1 0x20 MSTORE PUSH2 0x40D PUSH2 0x1565 PUSH1 0x40 PUSH1 0x0 KECCAK256 PUSH2 0xB38 JUMP JUMPDEST PUSH1 0x0 PUSH1 0x40 MLOAD PUSH2 0x1573 DUP2 PUSH2 0x502 JUMP JUMPDEST MSTORE PUSH1 0x40 MLOAD SWAP2 DUP3 SWAP2 PUSH1 0x20 DUP4 MSTORE PUSH1 0x20 DUP4 ADD SWAP1 PUSH2 0x37C JUMP JUMPDEST PUSH1 0x40 MLOAD SWAP1 PUSH2 0x1595 DUP3 PUSH2 0x4E7 JUMP JUMPDEST PUSH1 0x7 DUP3 MSTORE PUSH7 0x119C21A120A323 PUSH1 0xC9 SHL PUSH1 0x20 DUP4 ADD MSTORE JUMP JUMPDEST POP CALLVALUE PUSH2 0xE JUMPI PUSH1 0x0 CALLDATASIZE PUSH1 0x3 NOT ADD SLT PUSH2 0xE JUMPI PUSH2 0x40D PUSH2 0x5EB PUSH2 0x1588 JUMP JUMPDEST POP CALLVALUE PUSH2 0xE JUMPI PUSH1 0x40 CALLDATASIZE PUSH1 0x3 NOT ADD SLT PUSH2 0xE JUMPI PUSH1 0x20 PUSH1 0xFF PUSH2 0x161A PUSH2 0x15E9 PUSH2 0x5FF JUMP JUMPDEST PUSH2 0x15F1 PUSH2 0x615 JUMP JUMPDEST PUSH1 0x1 PUSH1 0x1 PUSH1 0xA0 SHL SUB SWAP2 DUP3 AND PUSH1 0x0 SWAP1 DUP2 MSTORE PUSH1 0x5 DUP7 MSTORE PUSH1 0x40 DUP1 DUP3 KECCAK256 SWAP3 SWAP1 SWAP4 AND DUP2 MSTORE PUSH1 0x20 SWAP2 SWAP1 SWAP2 MSTORE KECCAK256 SWAP1 JUMP JUMPDEST SLOAD AND PUSH1 0x40 MLOAD SWAP1 ISZERO ISZERO DUP2 MSTORE RETURN JUMPDEST PUSH1 0x40 MLOAD SWAP1 PUSH2 0x1633 DUP3 PUSH2 0x4E7 JUMP JUMPDEST PUSH1 0xA DUP3 MSTORE PUSH10 0x33B93CB33334B73237B9 PUSH1 0xB1 SHL PUSH1 0x20 DUP4 ADD MSTORE JUMP JUMPDEST POP CALLVALUE PUSH2 0xE JUMPI PUSH1 0x0 CALLDATASIZE PUSH1 0x3 NOT ADD SLT PUSH2 0xE JUMPI PUSH2 0x40D PUSH2 0x5EB PUSH2 0x1626 JUMP JUMPDEST PUSH1 0x20 DUP1 DUP3 ADD SWAP1 DUP1 DUP4 MSTORE DUP4 MLOAD DUP1 SWAP3 MSTORE PUSH1 0x40 DUP4 ADD SWAP3 DUP2 PUSH1 0x40 DUP5 PUSH1 0x5 SHL DUP4 ADD ADD SWAP6 ADD SWAP4 PUSH1 0x0 SWAP2 JUMPDEST DUP5 DUP4 LT PUSH2 0x169D JUMPI POP POP POP POP POP POP SWAP1 JUMP JUMPDEST SWAP1 SWAP2 SWAP3 SWAP4 SWAP5 SWAP6 DUP5 DUP1 PUSH2 0x16BB PUSH1 0x1 SWAP4 PUSH1 0x3F NOT DUP7 DUP3 SUB ADD DUP8 MSTORE DUP11 MLOAD PUSH2 0x37C JUMP JUMPDEST SWAP9 ADD SWAP4 ADD SWAP4 ADD SWAP2 SWAP5 SWAP4 SWAP3 SWAP1 PUSH2 0x168D JUMP JUMPDEST POP CALLVALUE PUSH2 0xE JUMPI PUSH1 0x0 CALLDATASIZE PUSH1 0x3 NOT ADD SLT PUSH2 0xE JUMPI PUSH1 0x7 SLOAD PUSH2 0x16E9 DUP2 PUSH2 0x2940 JUMP JUMPDEST SWAP1 PUSH2 0x16F7 PUSH1 0x40 MLOAD SWAP3 DUP4 PUSH2 0x51D JUMP JUMPDEST DUP1 DUP3 MSTORE PUSH1 0x1F NOT PUSH2 0x1706 DUP3 PUSH2 0x2940 JUMP JUMPDEST ADD PUSH1 0x0 JUMPDEST DUP2 DUP2 LT PUSH2 0x176B JUMPI POP POP PUSH1 0x0 JUMPDEST DUP2 DUP2 LT PUSH2 0x172B JUMPI PUSH1 0x40 MLOAD DUP1 PUSH2 0x40D DUP6 DUP3 PUSH2 0x1669 JUMP JUMPDEST DUP1 PUSH2 0x174B PUSH2 0x1746 PUSH2 0x1766 SWAP4 PUSH1 0x0 MSTORE PUSH1 0x11 PUSH1 0x20 MSTORE PUSH1 0x40 PUSH1 0x0 KECCAK256 SWAP1 JUMP JUMPDEST PUSH2 0xB38 JUMP JUMPDEST PUSH2 0x1755 DUP3 DUP7 PUSH2 0x2966 JUMP JUMPDEST MSTORE PUSH2 0x1760 DUP2 DUP6 PUSH2 0x2966 JUMP JUMPDEST POP PUSH2 0x1E88 JUMP JUMPDEST PUSH2 0x1716 JUMP JUMPDEST DUP1 PUSH1 0x60 PUSH1 0x20 DUP1 SWAP4 DUP8 ADD ADD MSTORE ADD PUSH2 0x170A JUMP JUMPDEST ISZERO PUSH2 0x1783 JUMPI JUMP JUMPDEST PUSH1 0x40 MLOAD PUSH3 0x461BCD PUSH1 0xE5 SHL DUP2 MSTORE PUSH1 0x20 PUSH1 0x4 DUP3 ADD MSTORE PUSH1 0x18 PUSH1 0x24 DUP3 ADD MSTORE PUSH24 0x115490CDCC8C4E881A5B9D985B1A59081D1BDAD95B881251 PUSH1 0x42 SHL PUSH1 0x44 DUP3 ADD MSTORE PUSH1 0x64 SWAP1 REVERT JUMPDEST PUSH1 0x0 SWAP1 DUP2 MSTORE PUSH1 0x2 PUSH1 0x20 MSTORE PUSH1 0x40 SWAP1 KECCAK256 SLOAD PUSH1 0x1 PUSH1 0x1 PUSH1 0xA0 SHL SUB AND PUSH2 0x3B2 DUP2 ISZERO ISZERO PUSH2 0x177C JUMP JUMPDEST ISZERO PUSH2 0x17ED JUMPI JUMP JUMPDEST PUSH1 0x40 MLOAD PUSH3 0x461BCD PUSH1 0xE5 SHL DUP2 MSTORE PUSH1 0x20 PUSH1 0x4 DUP3 ADD MSTORE PUSH1 0x3E PUSH1 0x24 DUP3 ADD MSTORE PUSH32 0x4552433732313A20617070726F76652063616C6C6572206973206E6F7420746F PUSH1 0x44 DUP3 ADD MSTORE PUSH32 0x6B656E206F776E6572206E6F7220617070726F76656420666F7220616C6C0000 PUSH1 0x64 DUP3 ADD MSTORE PUSH1 0x84 SWAP1 REVERT JUMPDEST PUSH1 0x0 DUP2 DUP2 MSTORE PUSH1 0x2 PUSH1 0x20 MSTORE PUSH1 0x40 SWAP1 KECCAK256 SLOAD PUSH2 0x187B SWAP1 PUSH1 0x1 PUSH1 0x1 PUSH1 0xA0 SHL SUB AND ISZERO ISZERO PUSH2 0x177C JUMP JUMPDEST PUSH1 0x0 SWAP1 DUP2 MSTORE PUSH1 0x4 PUSH1 0x20 MSTORE PUSH1 0x40 SWAP1 KECCAK256 SLOAD PUSH1 0x1 PUSH1 0x1 PUSH1 0xA0 SHL SUB AND SWAP1 JUMP JUMPDEST ISZERO PUSH2 0x189D JUMPI JUMP JUMPDEST PUSH1 0x40 MLOAD PUSH3 0x461BCD PUSH1 0xE5 SHL DUP2 MSTORE PUSH1 0x20 PUSH1 0x4 DUP3 ADD MSTORE PUSH1 0x2E PUSH1 0x24 DUP3 ADD MSTORE PUSH32 0x4552433732313A2063616C6C6572206973206E6F7420746F6B656E206F776E65 PUSH1 0x44 DUP3 ADD MSTORE PUSH14 0x1C881B9BDC88185C1C1C9BDD9959 PUSH1 0x92 SHL PUSH1 0x64 DUP3 ADD MSTORE PUSH1 0x84 SWAP1 REVERT JUMPDEST SWAP2 PUSH2 0x54B SWAP4 SWAP2 PUSH2 0x1920 SWAP4 PUSH2 0x1910 PUSH2 0x8F2 DUP5 CALLER PUSH2 0x199C JUMP JUMPDEST PUSH2 0x191B DUP4 DUP4 DUP4 PUSH2 0x1AFC JUMP JUMPDEST PUSH2 0x1E4C JUMP JUMPDEST PUSH2 0x1978 JUMP JUMPDEST PUSH1 0x80 SWAP1 PUSH1 0x20 DUP2 MSTORE PUSH1 0x32 PUSH1 0x20 DUP3 ADD MSTORE PUSH32 0x4552433732313A207472616E7366657220746F206E6F6E204552433732315265 PUSH1 0x40 DUP3 ADD MSTORE PUSH18 0x31B2B4BB32B91034B6B83632B6B2B73A32B9 PUSH1 0x71 SHL PUSH1 0x60 DUP3 ADD MSTORE ADD SWAP1 JUMP JUMPDEST ISZERO PUSH2 0x197F JUMPI JUMP JUMPDEST PUSH1 0x40 MLOAD PUSH3 0x461BCD PUSH1 0xE5 SHL DUP2 MSTORE DUP1 PUSH2 0x1998 PUSH1 0x4 DUP3 ADD PUSH2 0x1925 JUMP JUMPDEST SUB SWAP1 REVERT JUMPDEST PUSH1 0x1 PUSH1 0x1 PUSH1 0xA0 SHL SUB DUP1 PUSH2 0x19AE DUP5 PUSH2 0x17C3 JUMP JUMPDEST AND SWAP3 DUP2 DUP4 AND SWAP3 DUP5 DUP5 EQ SWAP5 DUP6 ISZERO PUSH2 0x19E4 JUMPI JUMPDEST POP POP DUP4 ISZERO PUSH2 0x19CE JUMPI JUMPDEST POP POP POP SWAP1 JUMP JUMPDEST PUSH2 0x19DA SWAP2 SWAP3 SWAP4 POP PUSH2 0x1858 JUMP JUMPDEST AND EQ CODESIZE DUP1 DUP1 PUSH2 0x19C8 JUMP JUMPDEST PUSH1 0x0 SWAP1 DUP2 MSTORE PUSH1 0x5 PUSH1 0x20 SWAP1 DUP2 MSTORE PUSH1 0x40 DUP1 DUP4 KECCAK256 PUSH1 0x1 PUSH1 0x1 PUSH1 0xA0 SHL SUB SWAP5 SWAP1 SWAP5 AND DUP4 MSTORE SWAP3 SWAP1 MSTORE KECCAK256 SLOAD PUSH1 0xFF AND SWAP4 POP CODESIZE DUP1 PUSH2 0x19BF JUMP JUMPDEST ISZERO PUSH2 0x1A1B JUMPI JUMP JUMPDEST PUSH1 0x40 MLOAD PUSH3 0x461BCD PUSH1 0xE5 SHL DUP2 MSTORE PUSH1 0x20 PUSH1 0x4 DUP3 ADD MSTORE PUSH1 0x24 DUP1 DUP3 ADD MSTORE PUSH32 0x4552433732313A207472616E7366657220746F20746865207A65726F20616464 PUSH1 0x44 DUP3 ADD MSTORE PUSH4 0x72657373 PUSH1 0xE0 SHL PUSH1 0x64 DUP3 ADD MSTORE PUSH1 0x84 SWAP1 REVERT JUMPDEST POP PUSH4 0x4E487B71 PUSH1 0xE0 SHL PUSH1 0x0 MSTORE PUSH1 0x11 PUSH1 0x4 MSTORE PUSH1 0x24 PUSH1 0x0 REVERT JUMPDEST PUSH1 0x0 NOT DUP2 ADD SWAP2 SWAP1 DUP3 GT PUSH2 0x1A92 JUMPI JUMP JUMPDEST PUSH2 0x54B PUSH2 0x1A6C JUMP JUMPDEST SWAP1 PUSH1 0x1 DUP3 ADD DUP1 SWAP3 GT PUSH2 0x1A92 JUMPI JUMP JUMPDEST SWAP1 PUSH1 0x2 DUP3 ADD DUP1 SWAP3 GT PUSH2 0x1A92 JUMPI JUMP JUMPDEST SWAP1 PUSH1 0x20 DUP3 ADD DUP1 SWAP3 GT PUSH2 0x1A92 JUMPI JUMP JUMPDEST SWAP1 PUSH1 0x6 DUP3 ADD DUP1 SWAP3 GT PUSH2 0x1A92 JUMPI JUMP JUMPDEST SWAP1 PUSH1 0x5 DUP3 ADD DUP1 SWAP3 GT PUSH2 0x1A92 JUMPI JUMP JUMPDEST SWAP1 PUSH1 0x4 DUP3 ADD DUP1 SWAP3 GT PUSH2 0x1A92 JUMPI JUMP JUMPDEST SWAP1 PUSH1 0x3 DUP3 ADD DUP1 SWAP3 GT PUSH2 0x1A92 JUMPI JUMP JUMPDEST SWAP1 PUSH2 0x1B06 DUP4 PUSH2 0x17C3 JUMP JUMPDEST PUSH1 0x1 PUSH1 0x1 PUSH1 0xA0 SHL SUB DUP4 DUP2 AND SWAP3 SWAP1 SWAP2 DUP3 AND DUP4 SWAP1 SUB PUSH2 0x1BDF JUMPI PUSH2 0x1B55 PUSH2 0x1BB8 SWAP3 DUP3 AND SWAP5 PUSH2 0x1B32 DUP7 ISZERO ISZERO PUSH2 0x1A14 JUMP JUMPDEST PUSH2 0x1B3B DUP8 PUSH2 0x1C32 JUMP JUMPDEST PUSH1 0x1 PUSH1 0x1 PUSH1 0xA0 SHL SUB AND PUSH1 0x0 SWAP1 DUP2 MSTORE PUSH1 0x3 PUSH1 0x20 MSTORE PUSH1 0x40 SWAP1 KECCAK256 SWAP1 JUMP JUMPDEST PUSH2 0x1B5F DUP2 SLOAD PUSH2 0x1A83 JUMP JUMPDEST SWAP1 SSTORE PUSH1 0x1 PUSH1 0x1 PUSH1 0xA0 SHL SUB DUP2 AND PUSH1 0x0 SWAP1 DUP2 MSTORE PUSH1 0x3 PUSH1 0x20 MSTORE PUSH1 0x40 SWAP1 KECCAK256 PUSH2 0x1B83 DUP2 SLOAD PUSH2 0x1A9A JUMP JUMPDEST SWAP1 SSTORE PUSH2 0x1B99 DUP6 PUSH1 0x0 MSTORE PUSH1 0x2 PUSH1 0x20 MSTORE PUSH1 0x40 PUSH1 0x0 KECCAK256 SWAP1 JUMP JUMPDEST DUP1 SLOAD PUSH1 0x1 PUSH1 0x1 PUSH1 0xA0 SHL SUB NOT AND PUSH1 0x1 PUSH1 0x1 PUSH1 0xA0 SHL SUB SWAP1 SWAP3 AND SWAP2 SWAP1 SWAP2 OR SWAP1 SSTORE JUMP JUMPDEST PUSH32 0xDDF252AD1BE2C89B69C2B068FC378DAA952BA7F163C4A11628F55A4DF523B3EF PUSH1 0x0 DUP1 LOG4 JUMP JUMPDEST PUSH1 0x40 MLOAD PUSH3 0x461BCD PUSH1 0xE5 SHL DUP2 MSTORE PUSH1 0x20 PUSH1 0x4 DUP3 ADD MSTORE PUSH1 0x25 PUSH1 0x24 DUP3 ADD MSTORE PUSH32 0x4552433732313A207472616E736665722066726F6D20696E636F727265637420 PUSH1 0x44 DUP3 ADD MSTORE PUSH5 0x37BBB732B9 PUSH1 0xD9 SHL PUSH1 0x64 DUP3 ADD MSTORE PUSH1 0x84 SWAP1 REVERT JUMPDEST PUSH1 0x0 DUP2 DUP2 MSTORE PUSH1 0x4 PUSH1 0x20 MSTORE PUSH1 0x40 DUP2 KECCAK256 DUP1 SLOAD PUSH1 0x1 PUSH1 0x1 PUSH1 0xA0 SHL SUB NOT AND SWAP1 SSTORE PUSH1 0x1 PUSH1 0x1 PUSH1 0xA0 SHL SUB PUSH2 0x1C5F DUP4 PUSH2 0x17C3 JUMP JUMPDEST AND PUSH32 0x8C5BE1E5EBEC7D5BD14F71427D1E84F3DD0314C0F7B2291E5B200AC8C7C3B925 DUP3 DUP1 LOG4 JUMP JUMPDEST PUSH1 0x0 DUP3 DUP2 MSTORE PUSH1 0x4 PUSH1 0x20 MSTORE PUSH1 0x40 SWAP1 KECCAK256 DUP1 SLOAD PUSH1 0x1 PUSH1 0x1 PUSH1 0xA0 SHL SUB NOT AND PUSH1 0x1 PUSH1 0x1 PUSH1 0xA0 SHL SUB DUP4 AND OR SWAP1 SSTORE PUSH1 0x1 PUSH1 0x1 PUSH1 0xA0 SHL SUB DUP1 PUSH2 0x1CBF DUP5 PUSH2 0x17C3 JUMP JUMPDEST AND SWAP2 AND SWAP1 PUSH32 0x8C5BE1E5EBEC7D5BD14F71427D1E84F3DD0314C0F7B2291E5B200AC8C7C3B925 PUSH1 0x0 DUP1 LOG4 JUMP JUMPDEST SWAP1 DUP2 PUSH1 0x20 SWAP2 SUB SLT PUSH2 0xE JUMPI MLOAD PUSH2 0x3B2 DUP2 PUSH2 0x2D8 JUMP JUMPDEST PUSH2 0x3B2 SWAP4 SWAP3 PUSH1 0x80 SWAP3 PUSH1 0x1 DUP1 PUSH1 0xA0 SHL SUB AND DUP3 MSTORE PUSH1 0x0 PUSH1 0x20 DUP4 ADD MSTORE PUSH1 0x40 DUP3 ADD MSTORE DUP2 PUSH1 0x60 DUP3 ADD MSTORE ADD SWAP1 PUSH2 0x37C JUMP JUMPDEST PUSH1 0x1 PUSH1 0x1 PUSH1 0xA0 SHL SUB SWAP2 DUP3 AND DUP2 MSTORE SWAP2 AND PUSH1 0x20 DUP3 ADD MSTORE PUSH1 0x40 DUP2 ADD SWAP2 SWAP1 SWAP2 MSTORE PUSH1 0x80 PUSH1 0x60 DUP3 ADD DUP2 SWAP1 MSTORE PUSH2 0x3B2 SWAP3 SWAP2 ADD SWAP1 PUSH2 0x37C JUMP JUMPDEST RETURNDATASIZE ISZERO PUSH2 0x1D86 JUMPI RETURNDATASIZE SWAP1 PUSH2 0x1D6C DUP3 PUSH2 0x54D JUMP JUMPDEST SWAP2 PUSH2 0x1D7A PUSH1 0x40 MLOAD SWAP4 DUP5 PUSH2 0x51D JUMP JUMPDEST DUP3 MSTORE RETURNDATASIZE PUSH1 0x0 PUSH1 0x20 DUP5 ADD RETURNDATACOPY JUMP JUMPDEST PUSH1 0x60 SWAP1 JUMP JUMPDEST SWAP1 SWAP2 SWAP1 DUP1 EXTCODESIZE ISZERO PUSH2 0x1E44 JUMPI PUSH2 0x1DBD PUSH1 0x20 SWAP2 PUSH1 0x0 SWAP4 PUSH1 0x40 MLOAD SWAP5 DUP6 DUP1 SWAP5 DUP2 SWAP4 PUSH4 0xA85BD01 PUSH1 0xE1 SHL SWAP10 DUP11 DUP5 MSTORE CALLER PUSH1 0x4 DUP6 ADD PUSH2 0x1CFF JUMP JUMPDEST SUB SWAP3 PUSH1 0x1 PUSH1 0x1 PUSH1 0xA0 SHL SUB AND GAS CALL PUSH1 0x0 SWAP2 DUP2 PUSH2 0x1E14 JUMPI JUMPDEST POP PUSH2 0x1E06 JUMPI PUSH2 0x1DE0 PUSH2 0x1D5B JUMP JUMPDEST DUP1 MLOAD SWAP1 DUP2 PUSH2 0x1E01 JUMPI PUSH1 0x40 MLOAD PUSH3 0x461BCD PUSH1 0xE5 SHL DUP2 MSTORE DUP1 PUSH2 0x1998 PUSH1 0x4 DUP3 ADD PUSH2 0x1925 JUMP JUMPDEST PUSH1 0x20 ADD REVERT JUMPDEST PUSH1 0x1 PUSH1 0x1 PUSH1 0xE0 SHL SUB NOT AND EQ SWAP1 JUMP JUMPDEST PUSH2 0x1E36 SWAP2 SWAP3 POP PUSH1 0x20 RETURNDATASIZE DUP2 GT PUSH2 0x1E3D JUMPI JUMPDEST PUSH2 0x1E2E DUP2 DUP4 PUSH2 0x51D JUMP JUMPDEST DUP2 ADD SWAP1 PUSH2 0x1CEA JUMP JUMPDEST SWAP1 CODESIZE PUSH2 0x1DD3 JUMP JUMPDEST POP RETURNDATASIZE PUSH2 0x1E24 JUMP JUMPDEST POP POP POP PUSH1 0x1 SWAP1 JUMP JUMPDEST SWAP3 SWAP1 SWAP2 SWAP1 DUP3 EXTCODESIZE ISZERO PUSH2 0x1E7F JUMPI PUSH2 0x1DBD SWAP3 PUSH1 0x20 SWAP3 PUSH1 0x0 PUSH1 0x40 MLOAD DUP1 SWAP7 DUP2 SWAP6 DUP3 SWAP5 PUSH4 0xA85BD01 PUSH1 0xE1 SHL SWAP11 DUP12 DUP6 MSTORE CALLER PUSH1 0x4 DUP7 ADD PUSH2 0x1D2A JUMP JUMPDEST POP POP POP POP PUSH1 0x1 SWAP1 JUMP JUMPDEST PUSH1 0x1 SWAP1 PUSH1 0x0 NOT DUP2 EQ PUSH2 0x1E98 JUMPI ADD SWAP1 JUMP JUMPDEST PUSH2 0x981 PUSH2 0x1A6C JUMP JUMPDEST SWAP1 PUSH2 0x1EAA DUP3 PUSH2 0x54D JUMP JUMPDEST PUSH2 0x1EB7 PUSH1 0x40 MLOAD SWAP2 DUP3 PUSH2 0x51D JUMP JUMPDEST DUP3 DUP2 MSTORE DUP1 SWAP3 PUSH2 0x1EC8 PUSH1 0x1F NOT SWAP2 PUSH2 0x54D JUMP JUMPDEST ADD SWAP1 PUSH1 0x20 CALLDATASIZE SWAP2 ADD CALLDATACOPY JUMP JUMPDEST POP PUSH4 0x4E487B71 PUSH1 0xE0 SHL PUSH1 0x0 MSTORE PUSH1 0x32 PUSH1 0x4 MSTORE PUSH1 0x24 PUSH1 0x0 REVERT JUMPDEST SWAP1 PUSH1 0x20 SWAP2 DUP1 MLOAD DUP3 LT ISZERO PUSH2 0x1EFB JUMPI ADD ADD SWAP1 JUMP JUMPDEST PUSH2 0x1F03 PUSH2 0x1ED2 JUMP JUMPDEST ADD ADD SWAP1 JUMP JUMPDEST DUP1 ISZERO PUSH2 0x1F92 JUMPI PUSH1 0x0 DUP2 DUP2 DUP2 DUP1 JUMPDEST PUSH2 0x1F7A JUMPI POP PUSH2 0x1F23 DUP2 PUSH2 0x1EA0 JUMP JUMPDEST SWAP4 JUMPDEST PUSH2 0x1F2F JUMPI POP POP POP SWAP1 JUMP JUMPDEST PUSH2 0x1F38 SWAP1 PUSH2 0x1A83 JUMP JUMPDEST SWAP1 PUSH1 0xA SWAP1 PUSH1 0x30 DUP3 DUP3 MOD DUP2 ADD DUP1 SWAP2 GT PUSH2 0x1F6D JUMPI JUMPDEST PUSH1 0xF8 SHL PUSH1 0x1 PUSH1 0x1 PUSH1 0xF8 SHL SUB NOT AND DUP5 BYTE PUSH2 0x1F64 DUP5 DUP8 PUSH2 0x1EE9 JUMP JUMPDEST MSTORE8 DIV SWAP1 DUP2 PUSH2 0x1F25 JUMP JUMPDEST PUSH2 0x1F75 PUSH2 0x1A6C JUMP JUMPDEST PUSH2 0x1F4B JUMP JUMPDEST SWAP2 POP PUSH2 0x1F87 PUSH1 0xA SWAP2 PUSH2 0x1E88 JUMP JUMPDEST SWAP2 DIV DUP1 DUP5 SWAP3 SWAP2 PUSH2 0x1F15 JUMP JUMPDEST POP PUSH1 0x40 MLOAD PUSH2 0x1F9F DUP2 PUSH2 0x4E7 JUMP JUMPDEST PUSH1 0x1 DUP2 MSTORE PUSH1 0x3 PUSH1 0xFC SHL PUSH1 0x20 DUP3 ADD MSTORE SWAP1 JUMP JUMPDEST PUSH1 0x3 PUSH2 0x1FC5 PUSH2 0x1FC0 CALLDATASIZE DUP6 DUP6 PUSH2 0x8FC JUMP JUMPDEST PUSH2 0x2B1A JUMP JUMPDEST LT ISZERO SWAP2 DUP3 PUSH2 0x1FD2 JUMPI POP POP SWAP1 JUMP JUMPDEST PUSH1 0x14 SWAP3 POP PUSH2 0x1FE5 SWAP2 PUSH2 0x1FC0 SWAP2 CALLDATASIZE SWAP2 PUSH2 0x8FC JUMP JUMPDEST GT ISZERO SWAP1 JUMP JUMPDEST SWAP1 DUP1 SWAP3 SWAP2 DUP3 CALLDATACOPY ADD PUSH1 0x0 DUP2 MSTORE SWAP1 JUMP JUMPDEST PUSH1 0x20 SWAP1 DUP3 PUSH1 0x40 MLOAD SWAP4 DUP5 SWAP3 DUP4 CALLDATACOPY DUP2 ADD PUSH1 0xD DUP2 MSTORE SUB ADD SWAP1 KECCAK256 SWAP1 JUMP JUMPDEST ISZERO PUSH2 0x2018 JUMPI JUMP JUMPDEST PUSH1 0x40 MLOAD PUSH3 0x461BCD PUSH1 0xE5 SHL DUP2 MSTORE PUSH1 0x20 PUSH1 0x4 DUP3 ADD MSTORE PUSH1 0x13 PUSH1 0x24 DUP3 ADD MSTORE PUSH19 0x4E616D6520616C726561647920657869737473 PUSH1 0x68 SHL PUSH1 0x44 DUP3 ADD MSTORE PUSH1 0x64 SWAP1 REVERT JUMPDEST ISZERO PUSH2 0x205A JUMPI JUMP JUMPDEST PUSH1 0x40 MLOAD PUSH3 0x461BCD PUSH1 0xE5 SHL DUP2 MSTORE PUSH1 0x20 PUSH1 0x4 DUP3 ADD MSTORE PUSH1 0xC PUSH1 0x24 DUP3 ADD MSTORE PUSH12 0x496E76616C6964206E616D65 PUSH1 0xA0 SHL PUSH1 0x44 DUP3 ADD MSTORE PUSH1 0x64 SWAP1 REVERT JUMPDEST ISZERO PUSH2 0x2095 JUMPI JUMP JUMPDEST PUSH1 0x40 MLOAD PUSH3 0x461BCD PUSH1 0xE5 SHL DUP2 MSTORE PUSH1 0x20 PUSH1 0x4 DUP3 ADD MSTORE PUSH1 0x17 PUSH1 0x24 DUP3 ADD MSTORE PUSH23 0x1059191C995CDCC8185B1C9958591E48185C1C1B1A5959 PUSH1 0x4A SHL PUSH1 0x44 DUP3 ADD MSTORE PUSH1 0x64 SWAP1 REVERT JUMPDEST ISZERO PUSH2 0x20DB JUMPI JUMP JUMPDEST PUSH1 0x40 MLOAD PUSH3 0x461BCD PUSH1 0xE5 SHL DUP2 MSTORE PUSH1 0x20 PUSH1 0x4 DUP3 ADD MSTORE PUSH1 0x15 PUSH1 0x24 DUP3 ADD MSTORE PUSH21 0x139BDD08195B9BDD59DA0813585D1A58C81C185A59 PUSH1 0x5A SHL PUSH1 0x44 DUP3 ADD MSTORE PUSH1 0x64 SWAP1 REVERT JUMPDEST PUSH1 0x8 SLOAD PUSH1 0x0 SWAP3 SWAP2 PUSH2 0x2128 DUP3 PUSH2 0xAFE JUMP JUMPDEST SWAP2 PUSH1 0x1 SWAP1 DUP2 DUP2 AND SWAP1 DUP2 ISZERO PUSH2 0x2179 JUMPI POP PUSH1 0x1 EQ PUSH2 0x2143 JUMPI POP POP POP JUMP JUMPDEST SWAP1 SWAP2 SWAP3 SWAP4 POP PUSH1 0x8 PUSH1 0x0 MSTORE PUSH1 0x20 SWAP1 DUP2 PUSH1 0x0 KECCAK256 SWAP1 PUSH1 0x0 SWAP2 JUMPDEST DUP6 DUP4 LT PUSH2 0x2168 JUMPI POP POP POP POP ADD SWAP1 JUMP JUMPDEST DUP1 SLOAD DUP6 DUP5 ADD MSTORE SWAP2 DUP4 ADD SWAP2 DUP2 ADD PUSH2 0x2159 JUMP JUMPDEST PUSH1 0xFF NOT AND DUP4 MSTORE POP POP DUP2 ISZERO ISZERO SWAP1 SWAP2 MUL ADD SWAP2 POP JUMP JUMPDEST PUSH1 0x9 SLOAD PUSH1 0x0 SWAP3 SWAP2 PUSH2 0x219C DUP3 PUSH2 0xAFE JUMP JUMPDEST SWAP2 PUSH1 0x1 SWAP1 DUP2 DUP2 AND SWAP1 DUP2 ISZERO PUSH2 0x2179 JUMPI POP PUSH1 0x1 EQ PUSH2 0x21B7 JUMPI POP POP POP JUMP JUMPDEST SWAP1 SWAP2 SWAP3 SWAP4 POP PUSH1 0x9 PUSH1 0x0 MSTORE PUSH1 0x20 SWAP1 DUP2 PUSH1 0x0 KECCAK256 SWAP1 PUSH1 0x0 SWAP2 JUMPDEST DUP6 DUP4 LT PUSH2 0x21DC JUMPI POP POP POP POP ADD SWAP1 JUMP JUMPDEST DUP1 SLOAD DUP6 DUP5 ADD MSTORE SWAP2 DUP4 ADD SWAP2 DUP2 ADD PUSH2 0x21CD JUMP JUMPDEST PUSH1 0xA SLOAD PUSH1 0x0 SWAP3 SWAP2 PUSH2 0x21FD DUP3 PUSH2 0xAFE JUMP JUMPDEST SWAP2 PUSH1 0x1 SWAP1 DUP2 DUP2 AND SWAP1 DUP2 ISZERO PUSH2 0x2179 JUMPI POP PUSH1 0x1 EQ PUSH2 0x2218 JUMPI POP POP POP JUMP JUMPDEST SWAP1 SWAP2 SWAP3 SWAP4 POP PUSH1 0xA PUSH1 0x0 MSTORE PUSH1 0x20 SWAP1 DUP2 PUSH1 0x0 KECCAK256 SWAP1 PUSH1 0x0 SWAP2 JUMPDEST DUP6 DUP4 LT PUSH2 0x223D JUMPI POP POP POP POP ADD SWAP1 JUMP JUMPDEST DUP1 SLOAD DUP6 DUP5 ADD MSTORE SWAP2 DUP4 ADD SWAP2 DUP2 ADD PUSH2 0x222E JUMP JUMPDEST SWAP1 PUSH1 0x1F DUP2 GT PUSH2 0x225C JUMPI POP POP POP JUMP JUMPDEST PUSH1 0x0 SWAP2 DUP3 MSTORE PUSH1 0x20 DUP3 KECCAK256 SWAP1 PUSH1 0x20 PUSH1 0x1F DUP6 ADD PUSH1 0x5 SHR DUP4 ADD SWAP5 LT PUSH2 0x2298 JUMPI JUMPDEST PUSH1 0x1F ADD PUSH1 0x5 SHR ADD SWAP2 JUMPDEST DUP3 DUP2 LT PUSH2 0x228D JUMPI POP POP POP JUMP JUMPDEST DUP2 DUP2 SSTORE PUSH1 0x1 ADD PUSH2 0x2281 JUMP JUMPDEST SWAP1 SWAP3 POP DUP3 SWAP1 PUSH2 0x2278 JUMP JUMPDEST SWAP2 SWAP1 SWAP2 DUP3 MLOAD PUSH1 0x1 PUSH1 0x1 PUSH1 0x40 SHL SUB DUP2 GT PUSH2 0x2371 JUMPI JUMPDEST PUSH2 0x22CA DUP2 PUSH2 0x22C4 DUP5 SLOAD PUSH2 0xAFE JUMP JUMPDEST DUP5 PUSH2 0x224E JUMP JUMPDEST PUSH1 0x20 DUP1 PUSH1 0x1F DUP4 GT PUSH1 0x1 EQ PUSH2 0x2306 JUMPI POP DUP2 SWAP3 SWAP4 SWAP5 PUSH1 0x0 SWAP3 PUSH2 0x22FB JUMPI JUMPDEST POP POP DUP2 PUSH1 0x1 SHL SWAP2 PUSH1 0x0 NOT SWAP1 PUSH1 0x3 SHL SHR NOT AND OR SWAP1 SSTORE JUMP JUMPDEST ADD MLOAD SWAP1 POP CODESIZE DUP1 PUSH2 0x22E5 JUMP JUMPDEST SWAP1 PUSH1 0x1F NOT DUP4 AND SWAP6 PUSH2 0x231C DUP6 PUSH1 0x0 MSTORE PUSH1 0x20 PUSH1 0x0 KECCAK256 SWAP1 JUMP JUMPDEST SWAP3 PUSH1 0x0 SWAP1 JUMPDEST DUP9 DUP3 LT PUSH2 0x2359 JUMPI POP POP DUP4 PUSH1 0x1 SWAP6 SWAP7 SWAP8 LT PUSH2 0x2340 JUMPI JUMPDEST POP POP POP DUP2 SHL ADD SWAP1 SSTORE JUMP JUMPDEST ADD MLOAD PUSH1 0x0 NOT PUSH1 0xF8 DUP5 PUSH1 0x3 SHL AND SHR NOT AND SWAP1 SSTORE CODESIZE DUP1 DUP1 PUSH2 0x2336 JUMP JUMPDEST DUP1 PUSH1 0x1 DUP6 SWAP7 DUP3 SWAP5 SWAP7 DUP7 ADD MLOAD DUP2 SSTORE ADD SWAP6 ADD SWAP4 ADD SWAP1 PUSH2 0x2321 JUMP JUMPDEST PUSH2 0x2379 PUSH2 0x4A8 JUMP JUMPDEST PUSH2 0x22B6 JUMP JUMPDEST DUP3 PUSH2 0x3B2 SWAP5 SWAP4 PUSH1 0x60 SWAP4 PUSH1 0x40 DUP5 MSTORE DUP2 PUSH1 0x40 DUP6 ADD MSTORE DUP5 DUP5 ADD CALLDATACOPY PUSH1 0x0 DUP4 DUP3 DUP5 ADD ADD MSTORE PUSH1 0x1F DUP1 NOT SWAP2 ADD AND DUP2 ADD SWAP1 PUSH1 0x20 DUP4 DUP3 DUP5 SUB ADD SWAP2 ADD MSTORE ADD SWAP1 PUSH2 0x37C JUMP JUMPDEST SWAP1 PUSH1 0x40 MLOAD PUSH2 0x23C5 DUP2 PUSH2 0x502 JUMP JUMPDEST PUSH1 0x0 DUP2 MSTORE PUSH1 0x1 PUSH1 0x1 PUSH1 0xA0 SHL SUB DUP4 AND SWAP2 DUP3 ISZERO PUSH2 0x24AF JUMPI PUSH1 0x0 DUP2 DUP2 MSTORE PUSH1 0x2 PUSH1 0x20 MSTORE PUSH1 0x40 SWAP1 KECCAK256 SLOAD PUSH1 0x1 PUSH1 0x1 PUSH1 0xA0 SHL SUB AND PUSH2 0x246A JUMPI DUP4 DUP2 PUSH2 0x1920 SWAP5 PUSH2 0x241B PUSH2 0x54B SWAP8 PUSH1 0x1 DUP1 PUSH1 0xA0 SHL SUB AND PUSH1 0x0 MSTORE PUSH1 0x3 PUSH1 0x20 MSTORE PUSH1 0x40 PUSH1 0x0 KECCAK256 SWAP1 JUMP JUMPDEST PUSH2 0x2425 DUP2 SLOAD PUSH2 0x1A9A JUMP JUMPDEST SWAP1 SSTORE PUSH2 0x243F DUP4 PUSH2 0x1B99 DUP5 PUSH1 0x0 MSTORE PUSH1 0x2 PUSH1 0x20 MSTORE PUSH1 0x40 PUSH1 0x0 KECCAK256 SWAP1 JUMP JUMPDEST PUSH1 0x0 PUSH32 0xDDF252AD1BE2C89B69C2B068FC378DAA952BA7F163C4A11628F55A4DF523B3EF DUP2 DUP1 LOG4 PUSH2 0x1D8B JUMP JUMPDEST PUSH1 0x40 MLOAD PUSH3 0x461BCD PUSH1 0xE5 SHL DUP2 MSTORE PUSH1 0x20 PUSH1 0x4 DUP3 ADD MSTORE PUSH1 0x1C PUSH1 0x24 DUP3 ADD MSTORE PUSH32 0x4552433732313A20746F6B656E20616C7265616479206D696E74656400000000 PUSH1 0x44 DUP3 ADD MSTORE PUSH1 0x64 SWAP1 REVERT JUMPDEST PUSH1 0x64 PUSH1 0x40 MLOAD PUSH3 0x461BCD PUSH1 0xE5 SHL DUP2 MSTORE PUSH1 0x20 PUSH1 0x4 DUP3 ADD MSTORE PUSH1 0x20 PUSH1 0x24 DUP3 ADD MSTORE PUSH32 0x4552433732313A206D696E7420746F20746865207A65726F2061646472657373 PUSH1 0x44 DUP3 ADD MSTORE REVERT JUMPDEST PUSH1 0x0 DUP2 DUP2 MSTORE PUSH1 0x2 PUSH1 0x20 MSTORE PUSH1 0x40 SWAP1 KECCAK256 SLOAD SWAP2 SWAP3 SWAP2 PUSH1 0x1 PUSH1 0x1 PUSH1 0xA0 SHL SUB AND ISZERO PUSH2 0x25D4 JUMPI PUSH1 0x0 MSTORE PUSH1 0x20 PUSH1 0x6 DUP2 MSTORE PUSH1 0x40 PUSH1 0x0 KECCAK256 SWAP1 DUP4 MLOAD SWAP1 PUSH1 0x1 PUSH1 0x1 PUSH1 0x40 SHL SUB DUP3 GT PUSH2 0x25C7 JUMPI JUMPDEST PUSH2 0x2548 DUP3 PUSH2 0x2542 DUP6 SLOAD PUSH2 0xAFE JUMP JUMPDEST DUP6 PUSH2 0x224E JUMP JUMPDEST DUP1 PUSH1 0x1F DUP4 GT PUSH1 0x1 EQ PUSH2 0x2576 JUMPI POP DUP2 SWAP3 SWAP4 SWAP5 PUSH1 0x0 SWAP3 PUSH2 0x22FB JUMPI POP POP DUP2 PUSH1 0x1 SHL SWAP2 PUSH1 0x0 NOT SWAP1 PUSH1 0x3 SHL SHR NOT AND OR SWAP1 SSTORE JUMP JUMPDEST SWAP1 PUSH1 0x1F NOT DUP4 AND SWAP6 PUSH2 0x258C DUP6 PUSH1 0x0 MSTORE PUSH1 0x20 PUSH1 0x0 KECCAK256 SWAP1 JUMP JUMPDEST SWAP3 PUSH1 0x0 SWAP1 JUMPDEST DUP9 DUP3 LT PUSH2 0x25AF JUMPI POP POP DUP4 PUSH1 0x1 SWAP6 SWAP7 SWAP8 LT PUSH2 0x2340 JUMPI POP POP POP DUP2 SHL ADD SWAP1 SSTORE JUMP JUMPDEST DUP1 PUSH1 0x1 DUP6 SWAP7 DUP3 SWAP5 SWAP7 DUP7 ADD MLOAD DUP2 SSTORE ADD SWAP6 ADD SWAP4 ADD SWAP1 PUSH2 0x2591 JUMP JUMPDEST PUSH2 0x25CF PUSH2 0x4A8 JUMP JUMPDEST PUSH2 0x2534 JUMP JUMPDEST PUSH1 0x40 MLOAD PUSH3 0x461BCD PUSH1 0xE5 SHL DUP2 MSTORE PUSH1 0x20 PUSH1 0x4 DUP3 ADD MSTORE PUSH1 0x2E PUSH1 0x24 DUP3 ADD MSTORE PUSH32 0x45524337323155524953746F726167653A2055524920736574206F66206E6F6E PUSH1 0x44 DUP3 ADD MSTORE PUSH14 0x32BC34B9BA32B73A103A37B5B2B7 PUSH1 0x91 SHL PUSH1 0x64 DUP3 ADD MSTORE PUSH1 0x84 SWAP1 REVERT JUMPDEST PUSH1 0x64 SWAP1 PUSH1 0x40 MLOAD PUSH1 0x20 DUP2 ADD SWAP2 TIMESTAMP DUP4 MSTORE PUSH1 0x40 DUP3 ADD MSTORE DIFFICULTY PUSH1 0x60 DUP3 ADD MSTORE CALLER PUSH1 0x60 SHL PUSH1 0x80 DUP3 ADD MSTORE PUSH1 0x74 DUP2 MSTORE PUSH2 0x265F DUP2 PUSH2 0x4BF JUMP JUMPDEST MLOAD SWAP1 KECCAK256 MOD SWAP1 JUMP JUMPDEST PUSH1 0x60 SWAP1 DUP2 SWAP1 PUSH1 0x19 DUP2 GT PUSH2 0x2687 JUMPI POP POP POP PUSH2 0x267E PUSH2 0x1626 JUMP JUMPDEST SWAP1 PUSH2 0x3B2 PUSH2 0x11CA JUMP JUMPDEST PUSH1 0x1A DUP2 LT ISZERO DUP1 PUSH2 0x2710 JUMPI JUMPDEST ISZERO PUSH2 0x26AB JUMPI POP POP POP PUSH2 0x26A2 PUSH2 0x114D JUMP JUMPDEST SWAP1 PUSH2 0x3B2 PUSH2 0x702 JUMP JUMPDEST PUSH1 0x33 DUP2 LT ISZERO DUP1 PUSH2 0x2705 JUMPI JUMPDEST ISZERO PUSH2 0x26CF JUMPI POP POP POP PUSH2 0x26C6 PUSH2 0x5A8 JUMP JUMPDEST SWAP1 PUSH2 0x3B2 PUSH2 0x1448 JUMP JUMPDEST PUSH1 0x4C DUP2 SWAP5 SWAP3 SWAP4 SWAP5 LT ISZERO SWAP1 DUP2 PUSH2 0x26F9 JUMPI JUMPDEST POP ISZERO PUSH2 0x54B JUMPI SWAP2 POP POP PUSH2 0x26F0 PUSH2 0x120A JUMP JUMPDEST SWAP1 PUSH2 0x3B2 PUSH2 0x1588 JUMP JUMPDEST PUSH1 0x64 SWAP2 POP GT ISZERO CODESIZE PUSH2 0x26DF JUMP JUMPDEST POP PUSH1 0x4B DUP2 GT ISZERO PUSH2 0x26B6 JUMP JUMPDEST POP PUSH1 0x32 DUP2 GT ISZERO PUSH2 0x2692 JUMP JUMPDEST SWAP2 SWAP1 SWAP2 DUP3 MLOAD SWAP3 DUP4 MLOAD PUSH1 0x1 PUSH1 0x1 PUSH1 0x40 SHL SUB DUP2 GT PUSH2 0x285C JUMPI JUMPDEST PUSH2 0x2740 DUP2 PUSH2 0x2542 DUP6 SLOAD PUSH2 0xAFE JUMP JUMPDEST PUSH1 0x20 SWAP5 DUP6 SWAP1 PUSH1 0x1F DUP4 GT PUSH1 0x1 EQ PUSH2 0x27E2 JUMPI SWAP3 PUSH2 0x54B SWAP6 SWAP7 DUP4 PUSH2 0x27B6 SWAP5 PUSH1 0x80 SWAP5 PUSH1 0x4 SWAP8 PUSH1 0x0 SWAP3 PUSH2 0x27D7 JUMPI JUMPDEST POP POP DUP2 PUSH1 0x1 SHL SWAP2 PUSH1 0x0 NOT SWAP1 PUSH1 0x3 SHL SHR NOT AND OR DUP7 SSTORE JUMPDEST DUP2 ADD MLOAD PUSH1 0x1 DUP7 ADD SSTORE PUSH2 0x2797 PUSH1 0x40 DUP3 ADD MLOAD PUSH1 0x2 DUP8 ADD PUSH2 0x22A2 JUMP JUMPDEST PUSH2 0x27A8 PUSH1 0x60 DUP3 ADD MLOAD PUSH1 0x3 DUP8 ADD PUSH2 0x22A2 JUMP JUMPDEST ADD MLOAD PUSH1 0x1 PUSH1 0x1 PUSH1 0xA0 SHL SUB AND SWAP1 JUMP JUMPDEST SWAP2 ADD DUP1 SLOAD PUSH1 0x1 PUSH1 0x1 PUSH1 0xA0 SHL SUB NOT AND PUSH1 0x1 PUSH1 0x1 PUSH1 0xA0 SHL SUB SWAP1 SWAP3 AND SWAP2 SWAP1 SWAP2 OR SWAP1 SSTORE JUMP JUMPDEST ADD MLOAD SWAP1 POP CODESIZE DUP1 PUSH2 0x2769 JUMP JUMPDEST SWAP1 PUSH1 0x1F NOT DUP4 AND SWAP2 PUSH2 0x27F8 DUP7 PUSH1 0x0 MSTORE PUSH1 0x20 PUSH1 0x0 KECCAK256 SWAP1 JUMP JUMPDEST SWAP3 PUSH1 0x0 JUMPDEST DUP2 DUP2 LT PUSH2 0x2845 JUMPI POP DUP5 PUSH1 0x80 SWAP5 PUSH1 0x4 SWAP8 SWAP5 PUSH2 0x54B SWAP11 SWAP12 SWAP5 PUSH2 0x27B6 SWAP9 PUSH1 0x1 SWAP6 LT PUSH2 0x282C JUMPI JUMPDEST POP POP POP DUP2 SHL ADD DUP7 SSTORE PUSH2 0x277E JUMP JUMPDEST ADD MLOAD PUSH1 0x0 NOT PUSH1 0xF8 DUP5 PUSH1 0x3 SHL AND SHR NOT AND SWAP1 SSTORE CODESIZE DUP1 DUP1 PUSH2 0x281F JUMP JUMPDEST SWAP3 SWAP4 DUP10 PUSH1 0x1 DUP2 SWAP3 DUP8 DUP7 ADD MLOAD DUP2 SSTORE ADD SWAP6 ADD SWAP4 ADD PUSH2 0x27FC JUMP JUMPDEST PUSH2 0x2864 PUSH2 0x4A8 JUMP JUMPDEST PUSH2 0x2732 JUMP JUMPDEST SWAP2 SWAP3 SWAP2 PUSH1 0x1 PUSH1 0x1 PUSH1 0xA0 SHL SUB PUSH2 0x287D DUP3 PUSH2 0x9AB JUMP JUMPDEST SLOAD AND CALLER SUB PUSH2 0x28C3 JUMPI PUSH2 0x28AE PUSH2 0x28BE SWAP3 PUSH2 0x54B SWAP6 PUSH2 0x2898 PUSH2 0x53E JUMP JUMPDEST SWAP6 DUP5 DUP8 MSTORE TIMESTAMP PUSH1 0x20 DUP9 ADD MSTORE PUSH1 0x40 DUP8 ADD MSTORE CALLDATASIZE SWAP2 PUSH2 0x8FC JUMP JUMPDEST PUSH1 0x60 DUP5 ADD MSTORE CALLER PUSH1 0x80 DUP5 ADD MSTORE PUSH2 0x985 JUMP JUMPDEST PUSH2 0x271B JUMP JUMPDEST PUSH1 0x40 MLOAD PUSH3 0x461BCD PUSH1 0xE5 SHL DUP2 MSTORE PUSH1 0x20 PUSH1 0x4 DUP3 ADD MSTORE PUSH1 0x22 PUSH1 0x24 DUP3 ADD MSTORE PUSH32 0x4E6F207065726D697373696F6E20746F206D6F6469667920746865207265636F PUSH1 0x44 DUP3 ADD MSTORE PUSH2 0x1C99 PUSH1 0xF2 SHL PUSH1 0x64 DUP3 ADD MSTORE PUSH1 0x84 SWAP1 REVERT JUMPDEST PUSH1 0x40 MLOAD SWAP1 PUSH2 0x2920 DUP3 PUSH2 0x4BF JUMP JUMPDEST PUSH1 0x0 PUSH1 0x80 DUP4 PUSH1 0x60 DUP2 MSTORE DUP3 PUSH1 0x20 DUP3 ADD MSTORE PUSH1 0x60 PUSH1 0x40 DUP3 ADD MSTORE PUSH1 0x60 DUP1 DUP3 ADD MSTORE ADD MSTORE JUMP JUMPDEST PUSH1 0x20 SWAP1 PUSH1 0x1 PUSH1 0x1 PUSH1 0x40 SHL SUB DUP2 GT PUSH2 0x2959 JUMPI JUMPDEST PUSH1 0x5 SHL ADD SWAP1 JUMP JUMPDEST PUSH2 0x2961 PUSH2 0x4A8 JUMP JUMPDEST PUSH2 0x2952 JUMP JUMPDEST PUSH1 0x20 SWAP2 DUP2 MLOAD DUP2 LT ISZERO PUSH2 0x297B JUMPI JUMPDEST PUSH1 0x5 SHL ADD ADD SWAP1 JUMP JUMPDEST PUSH2 0x2983 PUSH2 0x1ED2 JUMP JUMPDEST PUSH2 0x2973 JUMP JUMPDEST PUSH1 0x2 DUP2 SWAP1 SHL SWAP2 SWAP1 PUSH1 0x1 PUSH1 0x1 PUSH1 0xFE SHL SUB DUP2 AND SUB PUSH2 0x1A92 JUMPI JUMP JUMPDEST PUSH1 0x40 MLOAD SWAP1 PUSH1 0x60 DUP3 ADD DUP3 DUP2 LT PUSH1 0x1 PUSH1 0x1 PUSH1 0x40 SHL SUB DUP3 GT OR PUSH2 0x2A10 JUMPI JUMPDEST PUSH1 0x40 MSTORE PUSH1 0x40 DUP3 MSTORE PUSH32 0x6768696A6B6C6D6E6F707172737475767778797A303132333435363738392B2F PUSH1 0x40 DUP4 PUSH32 0x4142434445464748494A4B4C4D4E4F505152535455565758595A616263646566 PUSH1 0x20 DUP3 ADD MSTORE ADD MSTORE JUMP JUMPDEST PUSH2 0x2A18 PUSH2 0x4A8 JUMP JUMPDEST PUSH2 0x29BB JUMP JUMPDEST DUP1 MLOAD SWAP1 DUP2 ISZERO PUSH2 0x2B10 JUMPI PUSH2 0x2A41 PUSH2 0x2A3C PUSH2 0x2A35 DUP5 PUSH2 0x1AA8 JUMP JUMPDEST PUSH1 0x3 SWAP1 DIV SWAP1 JUMP JUMPDEST PUSH2 0x2988 JUMP JUMPDEST SWAP2 PUSH2 0x2A53 PUSH2 0x2A4E DUP5 PUSH2 0x1AB6 JUMP JUMPDEST PUSH2 0x1EA0 JUMP JUMPDEST SWAP1 PUSH2 0x2A5C PUSH2 0x29A0 JUMP JUMPDEST SWAP3 PUSH1 0x0 SWAP3 PUSH1 0x20 DUP2 ADD JUMPDEST DUP5 DUP5 DUP2 LT ISZERO PUSH2 0x2AC9 JUMPI SWAP1 PUSH1 0x4 SWAP2 PUSH1 0x3 DUP1 SWAP2 ADD SWAP7 DUP6 ADD ADD MLOAD PUSH1 0x1 PUSH1 0x3F SWAP1 DUP1 DUP3 DUP5 PUSH1 0x12 SHR AND DUP12 ADD ADD MLOAD SWAP2 DUP11 PUSH1 0xFF SWAP4 DUP5 DUP5 DUP5 DUP9 PUSH1 0xC SHR AND DUP5 ADD ADD MLOAD AND DUP6 DUP6 PUSH1 0x8 SWAP5 DUP7 DUP11 PUSH1 0x6 SHR AND ADD ADD MLOAD AND SWAP2 DUP4 SHL ADD DUP3 SHL ADD SWAP1 SHL SWAP4 AND DUP11 ADD ADD MLOAD AND ADD PUSH1 0xE0 SHL DUP2 MSTORE ADD PUSH2 0x2A65 JUMP JUMPDEST POP SWAP4 POP SWAP5 SWAP4 POP POP PUSH1 0x3 SWAP1 MOD DUP1 PUSH1 0x1 EQ PUSH2 0x2AFC JUMPI PUSH1 0x2 EQ PUSH2 0x2AEA JUMPI JUMPDEST POP DUP2 MSTORE SWAP1 JUMP JUMPDEST PUSH1 0x3D PUSH1 0xF8 SHL PUSH1 0x0 NOT SWAP1 SWAP2 ADD MSTORE CODESIZE PUSH2 0x2AE4 JUMP JUMPDEST POP PUSH2 0x3D3D PUSH1 0xF0 SHL PUSH1 0x1 NOT SWAP1 SWAP2 ADD MSTORE CODESIZE PUSH2 0x2AE4 JUMP JUMPDEST POP POP PUSH2 0x3B2 PUSH2 0x577 JUMP JUMPDEST PUSH1 0x0 DUP2 MLOAD SWAP2 DUP2 JUMPDEST DUP4 DUP2 LT PUSH2 0x2B2F JUMPI POP POP SWAP1 POP SWAP1 JUMP JUMPDEST DUP1 PUSH2 0x2B5E PUSH2 0x2B51 PUSH2 0x2B43 PUSH2 0x2B7A SWAP5 DUP7 PUSH2 0x1EE9 JUMP JUMPDEST MLOAD PUSH1 0x1 PUSH1 0x1 PUSH1 0xF8 SHL SUB NOT AND SWAP1 JUMP JUMPDEST PUSH1 0x1 PUSH1 0x1 PUSH1 0xF8 SHL SUB NOT AND SWAP1 JUMP JUMPDEST PUSH1 0x1 PUSH1 0xFF SHL DUP2 LT ISZERO PUSH2 0x2B80 JUMPI POP PUSH2 0x2B74 SWAP1 PUSH2 0x1A9A JUMP JUMPDEST SWAP3 PUSH2 0x1E88 JUMP JUMPDEST SWAP2 PUSH2 0x2B21 JUMP JUMPDEST PUSH1 0x7 PUSH1 0xFD SHL DUP2 LT ISZERO PUSH2 0x2B96 JUMPI POP PUSH2 0x2B74 SWAP1 PUSH2 0x1AA8 JUMP JUMPDEST PUSH1 0xF PUSH1 0xFC SHL DUP2 LT ISZERO PUSH2 0x2BAC JUMPI POP PUSH2 0x2B74 SWAP1 PUSH2 0x1AEE JUMP JUMPDEST PUSH1 0x1F PUSH1 0xFB SHL DUP2 LT ISZERO PUSH2 0x2BC2 JUMPI POP PUSH2 0x2B74 SWAP1 PUSH2 0x1AE0 JUMP JUMPDEST PUSH1 0x3F PUSH1 0xFA SHL GT ISZERO PUSH2 0x2BD6 JUMPI PUSH2 0x2B74 SWAP1 PUSH2 0x1AD2 JUMP JUMPDEST PUSH2 0x2B74 SWAP1 PUSH2 0x1AC4 JUMP INVALID LOG2 PUSH5 0x6970667358 0x22 SLT KECCAK256 PUSH28 0x14A12F0136B9E0CD7BA08E16D2F42BEDF7A53981F4B972A1DD2F55F2 0x5F 0xB7 SWAP16 PUSH5 0x736F6C6343 STOP ADDMOD GT STOP CALLER RETURNDATASIZE 0x22 CALLDATALOAD CALLVALUE 0x22 KECCAK256 PUSH9 0x65696768743D223438 0x22 KECCAK256 PUSH7 0x696C6C3D227572 PUSH13 0x28237061740000000000000000 "},"methodIdentifiers":{"addressesToDomains(address)":"7618af72","applyToHogwarts(string,string,uint256)":"68bd026c","approve(address,uint256)":"095ea7b3","balanceOf(address)":"70a08231","domainTracker(address)":"abe50fa6","domains(string)":"26449235","getAddress(string)":"bf40fac1","getAllNames()":"fb825e5f","getApproved(uint256)":"081812fc","getRecord(string)":"11dd8845","getRecordBySender()":"6532b17f","gryffindorColor()":"79137275","gryffindorSld()":"fa626f6b","hufflepuffColor()":"b5140057","hufflepuffSld()":"08b13a1d","isApprovedForAll(address,address)":"e985e9c5","isOwner()":"8f32d59b","name()":"06fdde03","names(uint256)":"4622ab03","ownerOf(uint256)":"6352211e","ravenclawColor()":"d3cbcfea","ravenclawSld()":"7ddd5dd8","records(string)":"541e771d","safeTransferFrom(address,address,uint256)":"42842e0e","safeTransferFrom(address,address,uint256,bytes)":"b88d4fde","setApprovalForAll(address,bool)":"a22cb465","slytherinColor()":"0b912301","slytherinSld()":"73eea211","supportsInterface(bytes4)":"01ffc9a7","symbol()":"95d89b41","tld()":"2d551432","tokenURI(uint256)":"c87b56dd","transferFrom(address,address,uint256)":"23b872dd","valid(string)":"9791c097","withdraw()":"3ccfd60b"}}}}}